{
  "_format": "hh-sol-artifact-1",
  "contractName": "ZombieHelper",
  "sourceName": "contracts/ZombieHelper.sol",
  "abi": [
    {
      "anonymous": false,
      "inputs": [
        {
          "indexed": false,
          "internalType": "uint256",
          "name": "zombieId",
          "type": "uint256"
        },
        {
          "indexed": false,
          "internalType": "string",
          "name": "name",
          "type": "string"
        },
        {
          "indexed": false,
          "internalType": "uint256",
          "name": "dna",
          "type": "uint256"
        }
      ],
      "name": "EventNewZombie",
      "type": "event"
    },
    {
      "anonymous": false,
      "inputs": [
        {
          "indexed": true,
          "internalType": "address",
          "name": "previousOwner",
          "type": "address"
        },
        {
          "indexed": true,
          "internalType": "address",
          "name": "newOwner",
          "type": "address"
        }
      ],
      "name": "OwnershipTransferred",
      "type": "event"
    },
    {
      "inputs": [
        {
          "internalType": "uint256",
          "name": "_zombieId",
          "type": "uint256"
        },
        {
          "internalType": "uint256",
          "name": "_newDna",
          "type": "uint256"
        }
      ],
      "name": "changeDna",
      "outputs": [],
      "stateMutability": "nonpayable",
      "type": "function"
    },
    {
      "inputs": [
        {
          "internalType": "uint256",
          "name": "_zombieId",
          "type": "uint256"
        },
        {
          "internalType": "string",
          "name": "_newName",
          "type": "string"
        }
      ],
      "name": "changeName",
      "outputs": [],
      "stateMutability": "nonpayable",
      "type": "function"
    },
    {
      "inputs": [
        {
          "internalType": "string",
          "name": "_name",
          "type": "string"
        }
      ],
      "name": "createRandomZombie",
      "outputs": [],
      "stateMutability": "nonpayable",
      "type": "function"
    },
    {
      "inputs": [
        {
          "internalType": "uint256",
          "name": "_zombieId",
          "type": "uint256"
        },
        {
          "internalType": "uint256",
          "name": "_kittyId",
          "type": "uint256"
        }
      ],
      "name": "feedOnKitty",
      "outputs": [],
      "stateMutability": "nonpayable",
      "type": "function"
    },
    {
      "inputs": [],
      "name": "getBalance",
      "outputs": [
        {
          "internalType": "uint256",
          "name": "",
          "type": "uint256"
        }
      ],
      "stateMutability": "view",
      "type": "function"
    },
    {
      "inputs": [],
      "name": "getLevelUpFee",
      "outputs": [
        {
          "internalType": "uint256",
          "name": "",
          "type": "uint256"
        }
      ],
      "stateMutability": "view",
      "type": "function"
    },
    {
      "inputs": [],
      "name": "getOwnedZombiesCount",
      "outputs": [
        {
          "internalType": "uint256",
          "name": "",
          "type": "uint256"
        }
      ],
      "stateMutability": "view",
      "type": "function"
    },
    {
      "inputs": [
        {
          "internalType": "address",
          "name": "_owner",
          "type": "address"
        }
      ],
      "name": "getZombiesByOwner",
      "outputs": [
        {
          "internalType": "uint256[]",
          "name": "",
          "type": "uint256[]"
        }
      ],
      "stateMutability": "view",
      "type": "function"
    },
    {
      "inputs": [
        {
          "internalType": "uint256",
          "name": "_zombieId",
          "type": "uint256"
        }
      ],
      "name": "levelUp",
      "outputs": [],
      "stateMutability": "payable",
      "type": "function"
    },
    {
      "inputs": [],
      "name": "owner",
      "outputs": [
        {
          "internalType": "address",
          "name": "",
          "type": "address"
        }
      ],
      "stateMutability": "view",
      "type": "function"
    },
    {
      "inputs": [],
      "name": "renounceOwnership",
      "outputs": [],
      "stateMutability": "nonpayable",
      "type": "function"
    },
    {
      "inputs": [
        {
          "internalType": "address",
          "name": "_address",
          "type": "address"
        }
      ],
      "name": "setKittyContractAddress",
      "outputs": [],
      "stateMutability": "nonpayable",
      "type": "function"
    },
    {
      "inputs": [
        {
          "internalType": "uint256",
          "name": "_fee",
          "type": "uint256"
        }
      ],
      "name": "setLevelUpFee",
      "outputs": [],
      "stateMutability": "nonpayable",
      "type": "function"
    },
    {
      "inputs": [
        {
          "internalType": "address",
          "name": "newOwner",
          "type": "address"
        }
      ],
      "name": "transferOwnership",
      "outputs": [],
      "stateMutability": "nonpayable",
      "type": "function"
    },
    {
      "inputs": [],
      "name": "withdraw",
      "outputs": [],
      "stateMutability": "nonpayable",
      "type": "function"
    },
    {
      "inputs": [
        {
          "internalType": "uint256",
          "name": "",
          "type": "uint256"
        }
      ],
      "name": "zombieToOwner",
      "outputs": [
        {
          "internalType": "address",
          "name": "",
          "type": "address"
        }
      ],
      "stateMutability": "view",
      "type": "function"
    },
    {
      "inputs": [
        {
          "internalType": "uint256",
          "name": "",
          "type": "uint256"
        }
      ],
      "name": "zombies",
      "outputs": [
        {
          "internalType": "string",
          "name": "name",
          "type": "string"
        },
        {
          "internalType": "uint256",
          "name": "dna",
          "type": "uint256"
        },
        {
          "internalType": "uint32",
          "name": "level",
          "type": "uint32"
        },
        {
          "internalType": "uint32",
          "name": "readyTime",
          "type": "uint32"
        },
        {
          "internalType": "uint16",
          "name": "winCount",
          "type": "uint16"
        },
        {
          "internalType": "uint16",
          "name": "lossCount",
          "type": "uint16"
        }
      ],
      "stateMutability": "view",
      "type": "function"
    }
  ],
  "bytecode": "0x60806040526010600155600154600a6200001a9190620002bc565b6002556201518060035566038d7ea4c680006008553480156200003c57600080fd5b506200005d620000516200006360201b60201c565b6200006b60201b60201c565b6200030d565b600033905090565b60008060009054906101000a900473ffffffffffffffffffffffffffffffffffffffff169050816000806101000a81548173ffffffffffffffffffffffffffffffffffffffff021916908373ffffffffffffffffffffffffffffffffffffffff1602179055508173ffffffffffffffffffffffffffffffffffffffff168173ffffffffffffffffffffffffffffffffffffffff167f8be0079c531659141344cd1fd0a4f28419497f9722a3daafe3b4186f6b6457e060405160405180910390a35050565b7f4e487b7100000000000000000000000000000000000000000000000000000000600052601160045260246000fd5b60008160011c9050919050565b6000808291508390505b6001851115620001bd578086048111156200019557620001946200012f565b5b6001851615620001a55780820291505b8081029050620001b5856200015e565b945062000175565b94509492505050565b600082620001d85760019050620002ab565b81620001e85760009050620002ab565b81600181146200020157600281146200020c5762000242565b6001915050620002ab565b60ff8411156200022157620002206200012f565b5b8360020a9150848211156200023b576200023a6200012f565b5b50620002ab565b5060208310610133831016604e8410600b84101617156200027c5782820a9050838111156200027657620002756200012f565b5b620002ab565b6200028b84848460016200016b565b92509050818404811115620002a557620002a46200012f565b5b81810290505b9392505050565b6000819050919050565b6000620002c982620002b2565b9150620002d683620002b2565b9250620003057fffffffffffffffffffffffffffffffffffffffffffffffffffffffffffffffff8484620001c6565b905092915050565b61247c806200031d6000396000f3fe6080604052600436106100fe5760003560e01c80635faf2880116100955780638da5cb5b116100645780638da5cb5b14610303578063c39cbef11461032e578063ccf670f814610357578063d6cc352614610380578063f2fde38b146103ab576100fe565b80635faf28801461026f5780636b2f60c814610298578063715018a6146102c35780637bff0a01146102da576100fe565b80633ccfd60b116100d15780633ccfd60b146101b55780634412e104146101cc578063528b7b8f146102095780635f4623f114610246576100fe565b80630ce90ec21461010357806312065fe01461011f57806317a7f4cc1461014a5780632052465e14610173575b600080fd5b61011d600480360381019061011891906114c3565b6103d4565b005b34801561012b57600080fd5b5061013461047f565b60405161014191906114ff565b60405180910390f35b34801561015657600080fd5b50610171600480360381019061016c919061151a565b610487565b005b34801561017f57600080fd5b5061019a600480360381019061019591906114c3565b610509565b6040516101ac96959493929190611626565b60405180910390f35b3480156101c157600080fd5b506101ca610619565b005b3480156101d857600080fd5b506101f360048036038101906101ee91906116ec565b610671565b60405161020091906117d7565b60405180910390f35b34801561021557600080fd5b50610230600480360381019061022b91906114c3565b6107c3565b60405161023d9190611808565b60405180910390f35b34801561025257600080fd5b5061026d600480360381019061026891906116ec565b6107f6565b005b34801561027b57600080fd5b506102966004803603810190610291919061151a565b610842565b005b3480156102a457600080fd5b506102ad610a37565b6040516102ba91906114ff565b60405180910390f35b3480156102cf57600080fd5b506102d8610a41565b005b3480156102e657600080fd5b5061030160048036038101906102fc9190611958565b610a55565b005b34801561030f57600080fd5b50610318610af2565b6040516103259190611808565b60405180910390f35b34801561033a57600080fd5b50610355600480360381019061035091906119a1565b610b1b565b005b34801561036357600080fd5b5061037e600480360381019061037991906114c3565b610c78565b005b34801561038c57600080fd5b50610395610c8a565b6040516103a291906114ff565b60405180910390f35b3480156103b757600080fd5b506103d260048036038101906103cd91906116ec565b610cd1565b005b6008543414610418576040517f08c379a000000000000000000000000000000000000000000000000000000000815260040161040f90611a49565b60405180910390fd5b6004818154811061042c5761042b611a69565b5b9060005260206000209060030201600201600081819054906101000a900463ffffffff168092919061045d90611ac7565b91906101000a81548163ffffffff021916908363ffffffff1602179055505050565b600047905090565b600081426104959190611af3565b44336040516020016104a993929190611b90565b6040516020818303038152906040528051906020012060001c905061050483826040518060400160405280600581526020017f6b69747479000000000000000000000000000000000000000000000000000000815250610d54565b505050565b6004818154811061051957600080fd5b906000526020600020906003020160009150905080600001805461053c90611bfc565b80601f016020809104026020016040519081016040528092919081815260200182805461056890611bfc565b80156105b55780601f1061058a576101008083540402835291602001916105b5565b820191906000526020600020905b81548152906001019060200180831161059857829003601f168201915b5050505050908060010154908060020160009054906101000a900463ffffffff16908060020160049054906101000a900463ffffffff16908060020160089054906101000a900461ffff169080600201600a9054906101000a900461ffff16905086565b610621610f58565b610629610af2565b73ffffffffffffffffffffffffffffffffffffffff166108fc479081150290604051600060405180830381858888f1935050505015801561066e573d6000803e3d6000fd5b50565b60606000600660008473ffffffffffffffffffffffffffffffffffffffff1673ffffffffffffffffffffffffffffffffffffffff1681526020019081526020016000205467ffffffffffffffff8111156106ce576106cd61182d565b5b6040519080825280602002602001820160405280156106fc5781602001602082028036833780820191505090505b5090506000805b6004805490508110156107b8578473ffffffffffffffffffffffffffffffffffffffff166005600083815260200190815260200160002060009054906101000a900473ffffffffffffffffffffffffffffffffffffffff1673ffffffffffffffffffffffffffffffffffffffff16036107a5578083838151811061078a57610789611a69565b5b60200260200101818152505081806107a190611c2d565b9250505b80806107b090611c2d565b915050610703565b508192505050919050565b60056020528060005260406000206000915054906101000a900473ffffffffffffffffffffffffffffffffffffffff1681565b6107fe610f58565b80600760006101000a81548173ffffffffffffffffffffffffffffffffffffffff021916908373ffffffffffffffffffffffffffffffffffffffff16021790555050565b601482816004828154811061085a57610859611a69565b5b906000526020600020906003020160020160009054906101000a900463ffffffff1663ffffffff1610156108c3576040517f08c379a00000000000000000000000000000000000000000000000000000000081526004016108ba90611ce7565b60405180910390fd5b836005600082815260200190815260200160002060009054906101000a900473ffffffffffffffffffffffffffffffffffffffff1673ffffffffffffffffffffffffffffffffffffffff163373ffffffffffffffffffffffffffffffffffffffff1614610965576040517f08c379a000000000000000000000000000000000000000000000000000000000815260040161095c90611d79565b60405180910390fd5b3373ffffffffffffffffffffffffffffffffffffffff166005600087815260200190815260200160002060009054906101000a900473ffffffffffffffffffffffffffffffffffffffff1673ffffffffffffffffffffffffffffffffffffffff1614610a06576040517f08c379a00000000000000000000000000000000000000000000000000000000081526004016109fd90611e0b565b60405180910390fd5b8360048681548110610a1b57610a1a611a69565b5b9060005260206000209060030201600101819055505050505050565b6000600854905090565b610a49610f58565b610a536000610fd6565b565b600660003373ffffffffffffffffffffffffffffffffffffffff1673ffffffffffffffffffffffffffffffffffffffff16815260200190815260200160002054600014610ad7576040517f08c379a0000000000000000000000000000000000000000000000000000000008152600401610ace90611e9d565b60405180910390fd5b6000610ae28261109a565b9050610aee82826110df565b5050565b60008060009054906101000a900473ffffffffffffffffffffffffffffffffffffffff16905090565b6002828160048281548110610b3357610b32611a69565b5b906000526020600020906003020160020160009054906101000a900463ffffffff1663ffffffff161015610b9c576040517f08c379a0000000000000000000000000000000000000000000000000000000008152600401610b9390611ce7565b60405180910390fd5b836005600082815260200190815260200160002060009054906101000a900473ffffffffffffffffffffffffffffffffffffffff1673ffffffffffffffffffffffffffffffffffffffff163373ffffffffffffffffffffffffffffffffffffffff1614610c3e576040517f08c379a0000000000000000000000000000000000000000000000000000000008152600401610c3590611d79565b60405180910390fd5b8360048681548110610c5357610c52611a69565b5b90600052602060002090600302016000019081610c709190612069565b505050505050565b610c80610f58565b8060088190555050565b6000600660003373ffffffffffffffffffffffffffffffffffffffff1673ffffffffffffffffffffffffffffffffffffffff16815260200190815260200160002054905090565b610cd9610f58565b600073ffffffffffffffffffffffffffffffffffffffff168173ffffffffffffffffffffffffffffffffffffffff1603610d48576040517f08c379a0000000000000000000000000000000000000000000000000000000008152600401610d3f906121ad565b60405180910390fd5b610d5181610fd6565b50565b826005600082815260200190815260200160002060009054906101000a900473ffffffffffffffffffffffffffffffffffffffff1673ffffffffffffffffffffffffffffffffffffffff163373ffffffffffffffffffffffffffffffffffffffff1614610df6576040517f08c379a0000000000000000000000000000000000000000000000000000000008152600401610ded90611d79565b60405180910390fd5b600060048581548110610e0c57610e0b611a69565b5b90600052602060002090600302019050610e258161130e565b610e64576040517f08c379a0000000000000000000000000000000000000000000000000000000008152600401610e5b90612219565b60405180910390fd5b60025484610e729190612268565b935060006002858360010154610e889190611af3565b610e929190612299565b90507f8d53323b21b9f304546f6d3e61cde865451064d614aa4912f395b755a9d8cad984604051602001610ec69190612306565b6040516020818303038152906040528051906020012003610f08576063606482610ef09190612268565b82610efb919061231d565b610f059190611af3565b90505b610f476040518060400160405280600681526020017f4e6f4e616d650000000000000000000000000000000000000000000000000000815250826110df565b610f5082611379565b505050505050565b610f606113ac565b73ffffffffffffffffffffffffffffffffffffffff16610f7e610af2565b73ffffffffffffffffffffffffffffffffffffffff1614610fd4576040517f08c379a0000000000000000000000000000000000000000000000000000000008152600401610fcb9061239d565b60405180910390fd5b565b60008060009054906101000a900473ffffffffffffffffffffffffffffffffffffffff169050816000806101000a81548173ffffffffffffffffffffffffffffffffffffffff021916908373ffffffffffffffffffffffffffffffffffffffff1602179055508173ffffffffffffffffffffffffffffffffffffffff168173ffffffffffffffffffffffffffffffffffffffff167f8be0079c531659141344cd1fd0a4f28419497f9722a3daafe3b4186f6b6457e060405160405180910390a35050565b600080826040516020016110ae9190612306565b6040516020818303038152906040528051906020012060001c9050600254816110d79190612268565b915050919050565b60046040518060c00160405280848152602001838152602001600163ffffffff168152602001600354426111139190611af3565b63ffffffff168152602001600061ffff168152602001600061ffff16815250908060018154018082558091505060019003906000526020600020906003020160009091909190915060008201518160000190816111709190612069565b506020820151816001015560408201518160020160006101000a81548163ffffffff021916908363ffffffff16021790555060608201518160020160046101000a81548163ffffffff021916908363ffffffff16021790555060808201518160020160086101000a81548161ffff021916908361ffff16021790555060a082015181600201600a6101000a81548161ffff021916908361ffff160217905550505060006001600480549050611225919061231d565b9050336005600083815260200190815260200160002060006101000a81548173ffffffffffffffffffffffffffffffffffffffff021916908373ffffffffffffffffffffffffffffffffffffffff160217905550600660003373ffffffffffffffffffffffffffffffffffffffff1673ffffffffffffffffffffffffffffffffffffffff16815260200190815260200160002060008154809291906112c990611c2d565b91905055507fe0bc367d57f255810f77a25ec7e4866c6dba3cd7b652945977390c9803f53139818484604051611301939291906123bd565b60405180910390a1505050565b600080428360020160049054906101000a900463ffffffff1663ffffffff16111590506113706040518060400160405280601781526020017f5b4c4f475d20697320726561647920746f20666565643f000000000000000000815250826113b4565b80915050919050565b600354426113879190611af3565b8160020160046101000a81548163ffffffff021916908363ffffffff16021790555050565b600033905090565b61144c82826040516024016113ca929190612416565b6040516020818303038152906040527fc3b55635000000000000000000000000000000000000000000000000000000007bffffffffffffffffffffffffffffffffffffffffffffffffffffffff19166020820180517bffffffffffffffffffffffffffffffffffffffffffffffffffffffff8381831617835250505050611450565b5050565b60008151905060006a636f6e736f6c652e6c6f679050602083016000808483855afa5050505050565b6000604051905090565b600080fd5b600080fd5b6000819050919050565b6114a08161148d565b81146114ab57600080fd5b50565b6000813590506114bd81611497565b92915050565b6000602082840312156114d9576114d8611483565b5b60006114e7848285016114ae565b91505092915050565b6114f98161148d565b82525050565b600060208201905061151460008301846114f0565b92915050565b6000806040838503121561153157611530611483565b5b600061153f858286016114ae565b9250506020611550858286016114ae565b9150509250929050565b600081519050919050565b600082825260208201905092915050565b60005b83811015611594578082015181840152602081019050611579565b60008484015250505050565b6000601f19601f8301169050919050565b60006115bc8261155a565b6115c68185611565565b93506115d6818560208601611576565b6115df816115a0565b840191505092915050565b600063ffffffff82169050919050565b611603816115ea565b82525050565b600061ffff82169050919050565b61162081611609565b82525050565b600060c082019050818103600083015261164081896115b1565b905061164f60208301886114f0565b61165c60408301876115fa565b61166960608301866115fa565b6116766080830185611617565b61168360a0830184611617565b979650505050505050565b600073ffffffffffffffffffffffffffffffffffffffff82169050919050565b60006116b98261168e565b9050919050565b6116c9816116ae565b81146116d457600080fd5b50565b6000813590506116e6816116c0565b92915050565b60006020828403121561170257611701611483565b5b6000611710848285016116d7565b91505092915050565b600081519050919050565b600082825260208201905092915050565b6000819050602082019050919050565b61174e8161148d565b82525050565b60006117608383611745565b60208301905092915050565b6000602082019050919050565b600061178482611719565b61178e8185611724565b935061179983611735565b8060005b838110156117ca5781516117b18882611754565b97506117bc8361176c565b92505060018101905061179d565b5085935050505092915050565b600060208201905081810360008301526117f18184611779565b905092915050565b611802816116ae565b82525050565b600060208201905061181d60008301846117f9565b92915050565b600080fd5b600080fd5b7f4e487b7100000000000000000000000000000000000000000000000000000000600052604160045260246000fd5b611865826115a0565b810181811067ffffffffffffffff821117156118845761188361182d565b5b80604052505050565b6000611897611479565b90506118a3828261185c565b919050565b600067ffffffffffffffff8211156118c3576118c261182d565b5b6118cc826115a0565b9050602081019050919050565b82818337600083830152505050565b60006118fb6118f6846118a8565b61188d565b90508281526020810184848401111561191757611916611828565b5b6119228482856118d9565b509392505050565b600082601f83011261193f5761193e611823565b5b813561194f8482602086016118e8565b91505092915050565b60006020828403121561196e5761196d611483565b5b600082013567ffffffffffffffff81111561198c5761198b611488565b5b6119988482850161192a565b91505092915050565b600080604083850312156119b8576119b7611483565b5b60006119c6858286016114ae565b925050602083013567ffffffffffffffff8111156119e7576119e6611488565b5b6119f38582860161192a565b9150509250929050565b7f736f6d6520657468657273206e656564656420746f206c6576656c2075700000600082015250565b6000611a33601e83611565565b9150611a3e826119fd565b602082019050919050565b60006020820190508181036000830152611a6281611a26565b9050919050565b7f4e487b7100000000000000000000000000000000000000000000000000000000600052603260045260246000fd5b7f4e487b7100000000000000000000000000000000000000000000000000000000600052601160045260246000fd5b6000611ad2826115ea565b915063ffffffff8203611ae857611ae7611a98565b5b600182019050919050565b6000611afe8261148d565b9150611b098361148d565b9250828201905080821115611b2157611b20611a98565b5b92915050565b6000819050919050565b611b42611b3d8261148d565b611b27565b82525050565b60008160601b9050919050565b6000611b6082611b48565b9050919050565b6000611b7282611b55565b9050919050565b611b8a611b85826116ae565b611b67565b82525050565b6000611b9c8286611b31565b602082019150611bac8285611b31565b602082019150611bbc8284611b79565b601482019150819050949350505050565b7f4e487b7100000000000000000000000000000000000000000000000000000000600052602260045260246000fd5b60006002820490506001821680611c1457607f821691505b602082108103611c2757611c26611bcd565b5b50919050565b6000611c388261148d565b91507fffffffffffffffffffffffffffffffffffffffffffffffffffffffffffffffff8203611c6a57611c69611a98565b5b600182019050919050565b7f7a6f6d626965206c6576656c20746f6f206c6f7720746f206368616e6765206e60008201527f616d650000000000000000000000000000000000000000000000000000000000602082015250565b6000611cd1602383611565565b9150611cdc82611c75565b604082019050919050565b60006020820190508181036000830152611d0081611cc4565b9050919050565b7f6d6573736167652e73656e6465722073686f756c64206f776e20746865207a6f60008201527f6d62696500000000000000000000000000000000000000000000000000000000602082015250565b6000611d63602483611565565b9150611d6e82611d07565b604082019050919050565b60006020820190508181036000830152611d9281611d56565b9050919050565b7f796f7520617265206e6f7420746865206f776e6572206f662074686973207a6f60008201527f6d62696500000000000000000000000000000000000000000000000000000000602082015250565b6000611df5602483611565565b9150611e0082611d99565b604082019050919050565b60006020820190508181036000830152611e2481611de8565b9050919050565b7f4f6e6c79206f6e65207a6f6d626965206f626a6563742063616e20626520637260008201527f656174656420666f72206f6e6520616464726573730000000000000000000000602082015250565b6000611e87603583611565565b9150611e9282611e2b565b604082019050919050565b60006020820190508181036000830152611eb681611e7a565b9050919050565b60008190508160005260206000209050919050565b60006020601f8301049050919050565b600082821b905092915050565b600060088302611f1f7fffffffffffffffffffffffffffffffffffffffffffffffffffffffffffffffff82611ee2565b611f298683611ee2565b95508019841693508086168417925050509392505050565b6000819050919050565b6000611f66611f61611f5c8461148d565b611f41565b61148d565b9050919050565b6000819050919050565b611f8083611f4b565b611f94611f8c82611f6d565b848454611eef565b825550505050565b600090565b611fa9611f9c565b611fb4818484611f77565b505050565b5b81811015611fd857611fcd600082611fa1565b600181019050611fba565b5050565b601f82111561201d57611fee81611ebd565b611ff784611ed2565b81016020851015612006578190505b61201a61201285611ed2565b830182611fb9565b50505b505050565b600082821c905092915050565b600061204060001984600802612022565b1980831691505092915050565b6000612059838361202f565b9150826002028217905092915050565b6120728261155a565b67ffffffffffffffff81111561208b5761208a61182d565b5b6120958254611bfc565b6120a0828285611fdc565b600060209050601f8311600181146120d357600084156120c1578287015190505b6120cb858261204d565b865550612133565b601f1984166120e186611ebd565b60005b82811015612109578489015182556001820191506020850194506020810190506120e4565b868310156121265784890151612122601f89168261202f565b8355505b6001600288020188555050505b505050505050565b7f4f776e61626c653a206e6577206f776e657220697320746865207a65726f206160008201527f6464726573730000000000000000000000000000000000000000000000000000602082015250565b6000612197602683611565565b91506121a28261213b565b604082019050919050565b600060208201905081810360008301526121c68161218a565b9050919050565b7f74686973207a6f6d626965206973206e6f7420726561647920746f2066656564600082015250565b6000612203602083611565565b915061220e826121cd565b602082019050919050565b60006020820190508181036000830152612232816121f6565b9050919050565b7f4e487b7100000000000000000000000000000000000000000000000000000000600052601260045260246000fd5b60006122738261148d565b915061227e8361148d565b92508261228e5761228d612239565b5b828206905092915050565b60006122a48261148d565b91506122af8361148d565b9250826122bf576122be612239565b5b828204905092915050565b600081905092915050565b60006122e08261155a565b6122ea81856122ca565b93506122fa818560208601611576565b80840191505092915050565b600061231282846122d5565b915081905092915050565b60006123288261148d565b91506123338361148d565b925082820390508181111561234b5761234a611a98565b5b92915050565b7f4f776e61626c653a2063616c6c6572206973206e6f7420746865206f776e6572600082015250565b6000612387602083611565565b915061239282612351565b602082019050919050565b600060208201905081810360008301526123b68161237a565b9050919050565b60006060820190506123d260008301866114f0565b81810360208301526123e481856115b1565b90506123f360408301846114f0565b949350505050565b60008115159050919050565b612410816123fb565b82525050565b6000604082019050818103600083015261243081856115b1565b905061243f6020830184612407565b939250505056fea26469706673582212202b9f45cdfc04824aece6659b74b9bd51732fca4868c891002a119216c30e158264736f6c63430008110033",
  "linkReferences": {},
  "deployedLinkReferences": {}
}