{
  "_format": "hh-sol-artifact-1",
  "contractName": "ZombieAttack",
  "sourceName": "contracts/ZombieAttack.sol",
  "abi": [
    {
      "anonymous": false,
      "inputs": [
        {
          "indexed": false,
          "internalType": "uint256",
          "name": "zombieId",
          "type": "uint256"
        },
        {
          "indexed": false,
          "internalType": "string",
          "name": "name",
          "type": "string"
        },
        {
          "indexed": false,
          "internalType": "uint256",
          "name": "dna",
          "type": "uint256"
        }
      ],
      "name": "EventNewZombie",
      "type": "event"
    },
    {
      "anonymous": false,
      "inputs": [
        {
          "indexed": true,
          "internalType": "address",
          "name": "previousOwner",
          "type": "address"
        },
        {
          "indexed": true,
          "internalType": "address",
          "name": "newOwner",
          "type": "address"
        }
      ],
      "name": "OwnershipTransferred",
      "type": "event"
    },
    {
      "inputs": [
        {
          "internalType": "uint256",
          "name": "_zombieId",
          "type": "uint256"
        },
        {
          "internalType": "uint256",
          "name": "_targetId",
          "type": "uint256"
        }
      ],
      "name": "attack",
      "outputs": [
        {
          "internalType": "uint256",
          "name": "",
          "type": "uint256"
        }
      ],
      "stateMutability": "nonpayable",
      "type": "function"
    },
    {
      "inputs": [
        {
          "internalType": "uint256",
          "name": "_zombieId",
          "type": "uint256"
        },
        {
          "internalType": "uint256",
          "name": "_newDna",
          "type": "uint256"
        }
      ],
      "name": "changeDna",
      "outputs": [],
      "stateMutability": "nonpayable",
      "type": "function"
    },
    {
      "inputs": [
        {
          "internalType": "uint256",
          "name": "_zombieId",
          "type": "uint256"
        },
        {
          "internalType": "string",
          "name": "_newName",
          "type": "string"
        }
      ],
      "name": "changeName",
      "outputs": [],
      "stateMutability": "nonpayable",
      "type": "function"
    },
    {
      "inputs": [
        {
          "internalType": "string",
          "name": "_name",
          "type": "string"
        }
      ],
      "name": "createRandomZombie",
      "outputs": [],
      "stateMutability": "nonpayable",
      "type": "function"
    },
    {
      "inputs": [
        {
          "internalType": "uint256",
          "name": "_zombieId",
          "type": "uint256"
        },
        {
          "internalType": "uint256",
          "name": "_kittyId",
          "type": "uint256"
        }
      ],
      "name": "feedOnKitty",
      "outputs": [],
      "stateMutability": "nonpayable",
      "type": "function"
    },
    {
      "inputs": [],
      "name": "getBalance",
      "outputs": [
        {
          "internalType": "uint256",
          "name": "",
          "type": "uint256"
        }
      ],
      "stateMutability": "view",
      "type": "function"
    },
    {
      "inputs": [],
      "name": "getLevelUpFee",
      "outputs": [
        {
          "internalType": "uint256",
          "name": "",
          "type": "uint256"
        }
      ],
      "stateMutability": "view",
      "type": "function"
    },
    {
      "inputs": [],
      "name": "getOwnedZombiesCount",
      "outputs": [
        {
          "internalType": "uint256",
          "name": "",
          "type": "uint256"
        }
      ],
      "stateMutability": "view",
      "type": "function"
    },
    {
      "inputs": [
        {
          "internalType": "address",
          "name": "_owner",
          "type": "address"
        }
      ],
      "name": "getZombiesByOwner",
      "outputs": [
        {
          "internalType": "uint256[]",
          "name": "",
          "type": "uint256[]"
        }
      ],
      "stateMutability": "view",
      "type": "function"
    },
    {
      "inputs": [
        {
          "internalType": "uint256",
          "name": "_zombieId",
          "type": "uint256"
        }
      ],
      "name": "levelUp",
      "outputs": [],
      "stateMutability": "payable",
      "type": "function"
    },
    {
      "inputs": [],
      "name": "owner",
      "outputs": [
        {
          "internalType": "address",
          "name": "",
          "type": "address"
        }
      ],
      "stateMutability": "view",
      "type": "function"
    },
    {
      "inputs": [],
      "name": "renounceOwnership",
      "outputs": [],
      "stateMutability": "nonpayable",
      "type": "function"
    },
    {
      "inputs": [
        {
          "internalType": "address",
          "name": "_address",
          "type": "address"
        }
      ],
      "name": "setKittyContractAddress",
      "outputs": [],
      "stateMutability": "nonpayable",
      "type": "function"
    },
    {
      "inputs": [
        {
          "internalType": "uint256",
          "name": "_fee",
          "type": "uint256"
        }
      ],
      "name": "setLevelUpFee",
      "outputs": [],
      "stateMutability": "nonpayable",
      "type": "function"
    },
    {
      "inputs": [
        {
          "internalType": "address",
          "name": "newOwner",
          "type": "address"
        }
      ],
      "name": "transferOwnership",
      "outputs": [],
      "stateMutability": "nonpayable",
      "type": "function"
    },
    {
      "inputs": [],
      "name": "withdraw",
      "outputs": [],
      "stateMutability": "nonpayable",
      "type": "function"
    },
    {
      "inputs": [
        {
          "internalType": "uint256",
          "name": "",
          "type": "uint256"
        }
      ],
      "name": "zombieToOwner",
      "outputs": [
        {
          "internalType": "address",
          "name": "",
          "type": "address"
        }
      ],
      "stateMutability": "view",
      "type": "function"
    },
    {
      "inputs": [
        {
          "internalType": "uint256",
          "name": "",
          "type": "uint256"
        }
      ],
      "name": "zombies",
      "outputs": [
        {
          "internalType": "string",
          "name": "name",
          "type": "string"
        },
        {
          "internalType": "uint256",
          "name": "dna",
          "type": "uint256"
        },
        {
          "internalType": "uint32",
          "name": "level",
          "type": "uint32"
        },
        {
          "internalType": "uint32",
          "name": "readyTime",
          "type": "uint32"
        },
        {
          "internalType": "uint16",
          "name": "winCount",
          "type": "uint16"
        },
        {
          "internalType": "uint16",
          "name": "lossCount",
          "type": "uint16"
        }
      ],
      "stateMutability": "view",
      "type": "function"
    }
  ],
  "bytecode": "0x60806040526010600155600154600a6200001a9190620002c6565b6002556201518060035566038d7ea4c6800060085560006009556046600a553480156200004657600080fd5b50620000676200005b6200006d60201b60201c565b6200007560201b60201c565b62000317565b600033905090565b60008060009054906101000a900473ffffffffffffffffffffffffffffffffffffffff169050816000806101000a81548173ffffffffffffffffffffffffffffffffffffffff021916908373ffffffffffffffffffffffffffffffffffffffff1602179055508173ffffffffffffffffffffffffffffffffffffffff168173ffffffffffffffffffffffffffffffffffffffff167f8be0079c531659141344cd1fd0a4f28419497f9722a3daafe3b4186f6b6457e060405160405180910390a35050565b7f4e487b7100000000000000000000000000000000000000000000000000000000600052601160045260246000fd5b60008160011c9050919050565b6000808291508390505b6001851115620001c7578086048111156200019f576200019e62000139565b5b6001851615620001af5780820291505b8081029050620001bf8562000168565b94506200017f565b94509492505050565b600082620001e25760019050620002b5565b81620001f25760009050620002b5565b81600181146200020b576002811462000216576200024c565b6001915050620002b5565b60ff8411156200022b576200022a62000139565b5b8360020a91508482111562000245576200024462000139565b5b50620002b5565b5060208310610133831016604e8410600b8410161715620002865782820a90508381111562000280576200027f62000139565b5b620002b5565b62000295848484600162000175565b92509050818404811115620002af57620002ae62000139565b5b81810290505b9392505050565b6000819050919050565b6000620002d382620002bc565b9150620002e083620002bc565b92506200030f7fffffffffffffffffffffffffffffffffffffffffffffffffffffffffffffffff8484620001d0565b905092915050565b61294b80620003276000396000f3fe6080604052600436106101095760003560e01c80636b2f60c811610095578063c39cbef111610064578063c39cbef114610339578063ccf670f814610362578063d6cc35261461038b578063e1fa7638146103b6578063f2fde38b146103f357610109565b80636b2f60c8146102a3578063715018a6146102ce5780637bff0a01146102e55780638da5cb5b1461030e57610109565b80633ccfd60b116100dc5780633ccfd60b146101c05780634412e104146101d7578063528b7b8f146102145780635f4623f1146102515780635faf28801461027a57610109565b80630ce90ec21461010e57806312065fe01461012a57806317a7f4cc146101555780632052465e1461017e575b600080fd5b610128600480360381019061012391906118fb565b61041c565b005b34801561013657600080fd5b5061013f6104c7565b60405161014c9190611937565b60405180910390f35b34801561016157600080fd5b5061017c60048036038101906101779190611952565b6104cf565b005b34801561018a57600080fd5b506101a560048036038101906101a091906118fb565b610551565b6040516101b796959493929190611a5e565b60405180910390f35b3480156101cc57600080fd5b506101d5610661565b005b3480156101e357600080fd5b506101fe60048036038101906101f99190611b24565b6106b9565b60405161020b9190611c0f565b60405180910390f35b34801561022057600080fd5b5061023b600480360381019061023691906118fb565b61080b565b6040516102489190611c40565b60405180910390f35b34801561025d57600080fd5b5061027860048036038101906102739190611b24565b61083e565b005b34801561028657600080fd5b506102a1600480360381019061029c9190611952565b61088a565b005b3480156102af57600080fd5b506102b8610a7f565b6040516102c59190611937565b60405180910390f35b3480156102da57600080fd5b506102e3610a89565b005b3480156102f157600080fd5b5061030c60048036038101906103079190611d90565b610a9d565b005b34801561031a57600080fd5b50610323610b3a565b6040516103309190611c40565b60405180910390f35b34801561034557600080fd5b50610360600480360381019061035b9190611dd9565b610b63565b005b34801561036e57600080fd5b50610389600480360381019061038491906118fb565b610cc0565b005b34801561039757600080fd5b506103a0610cd2565b6040516103ad9190611937565b60405180910390f35b3480156103c257600080fd5b506103dd60048036038101906103d89190611952565b610d19565b6040516103ea9190611937565b60405180910390f35b3480156103ff57600080fd5b5061041a60048036038101906104159190611b24565b610fcc565b005b6008543414610460576040517f08c379a000000000000000000000000000000000000000000000000000000000815260040161045790611e81565b60405180910390fd5b6004818154811061047457610473611ea1565b5b9060005260206000209060030201600201600081819054906101000a900463ffffffff16809291906104a590611eff565b91906101000a81548163ffffffff021916908363ffffffff1602179055505050565b600047905090565b600081426104dd9190611f2b565b44336040516020016104f193929190611fc8565b6040516020818303038152906040528051906020012060001c905061054c83826040518060400160405280600581526020017f6b6974747900000000000000000000000000000000000000000000000000000081525061104f565b505050565b6004818154811061056157600080fd5b906000526020600020906003020160009150905080600001805461058490612034565b80601f01602080910402602001604051908101604052809291908181526020018280546105b090612034565b80156105fd5780601f106105d2576101008083540402835291602001916105fd565b820191906000526020600020905b8154815290600101906020018083116105e057829003601f168201915b5050505050908060010154908060020160009054906101000a900463ffffffff16908060020160049054906101000a900463ffffffff16908060020160089054906101000a900461ffff169080600201600a9054906101000a900461ffff16905086565b610669611253565b610671610b3a565b73ffffffffffffffffffffffffffffffffffffffff166108fc479081150290604051600060405180830381858888f193505050501580156106b6573d6000803e3d6000fd5b50565b60606000600660008473ffffffffffffffffffffffffffffffffffffffff1673ffffffffffffffffffffffffffffffffffffffff1681526020019081526020016000205467ffffffffffffffff81111561071657610715611c65565b5b6040519080825280602002602001820160405280156107445781602001602082028036833780820191505090505b5090506000805b600480549050811015610800578473ffffffffffffffffffffffffffffffffffffffff166005600083815260200190815260200160002060009054906101000a900473ffffffffffffffffffffffffffffffffffffffff1673ffffffffffffffffffffffffffffffffffffffff16036107ed57808383815181106107d2576107d1611ea1565b5b60200260200101818152505081806107e990612065565b9250505b80806107f890612065565b91505061074b565b508192505050919050565b60056020528060005260406000206000915054906101000a900473ffffffffffffffffffffffffffffffffffffffff1681565b610846611253565b80600760006101000a81548173ffffffffffffffffffffffffffffffffffffffff021916908373ffffffffffffffffffffffffffffffffffffffff16021790555050565b60148281600482815481106108a2576108a1611ea1565b5b906000526020600020906003020160020160009054906101000a900463ffffffff1663ffffffff16101561090b576040517f08c379a00000000000000000000000000000000000000000000000000000000081526004016109029061211f565b60405180910390fd5b836005600082815260200190815260200160002060009054906101000a900473ffffffffffffffffffffffffffffffffffffffff1673ffffffffffffffffffffffffffffffffffffffff163373ffffffffffffffffffffffffffffffffffffffff16146109ad576040517f08c379a00000000000000000000000000000000000000000000000000000000081526004016109a4906121b1565b60405180910390fd5b3373ffffffffffffffffffffffffffffffffffffffff166005600087815260200190815260200160002060009054906101000a900473ffffffffffffffffffffffffffffffffffffffff1673ffffffffffffffffffffffffffffffffffffffff1614610a4e576040517f08c379a0000000000000000000000000000000000000000000000000000000008152600401610a4590612243565b60405180910390fd5b8360048681548110610a6357610a62611ea1565b5b9060005260206000209060030201600101819055505050505050565b6000600854905090565b610a91611253565b610a9b60006112d1565b565b600660003373ffffffffffffffffffffffffffffffffffffffff1673ffffffffffffffffffffffffffffffffffffffff16815260200190815260200160002054600014610b1f576040517f08c379a0000000000000000000000000000000000000000000000000000000008152600401610b16906122d5565b60405180910390fd5b6000610b2a82611395565b9050610b3682826113da565b5050565b60008060009054906101000a900473ffffffffffffffffffffffffffffffffffffffff16905090565b6002828160048281548110610b7b57610b7a611ea1565b5b906000526020600020906003020160020160009054906101000a900463ffffffff1663ffffffff161015610be4576040517f08c379a0000000000000000000000000000000000000000000000000000000008152600401610bdb9061211f565b60405180910390fd5b836005600082815260200190815260200160002060009054906101000a900473ffffffffffffffffffffffffffffffffffffffff1673ffffffffffffffffffffffffffffffffffffffff163373ffffffffffffffffffffffffffffffffffffffff1614610c86576040517f08c379a0000000000000000000000000000000000000000000000000000000008152600401610c7d906121b1565b60405180910390fd5b8360048681548110610c9b57610c9a611ea1565b5b90600052602060002090600302016000019081610cb891906124a1565b505050505050565b610cc8611253565b8060088190555050565b6000600660003373ffffffffffffffffffffffffffffffffffffffff1673ffffffffffffffffffffffffffffffffffffffff16815260200190815260200160002054905090565b6000826005600082815260200190815260200160002060009054906101000a900473ffffffffffffffffffffffffffffffffffffffff1673ffffffffffffffffffffffffffffffffffffffff163373ffffffffffffffffffffffffffffffffffffffff1614610dbd576040517f08c379a0000000000000000000000000000000000000000000000000000000008152600401610db4906121b1565b60405180910390fd5b600060048581548110610dd357610dd2611ea1565b5b90600052602060002090600302019050600060048581548110610df957610df8611ea1565b5b906000526020600020906003020190506000610e156064611609565b9050600a548111610f3b5782600201600881819054906101000a900461ffff1680929190610e4290612573565b91906101000a81548161ffff021916908361ffff1602179055505082600201600081819054906101000a900463ffffffff1680929190610e8190611eff565b91906101000a81548163ffffffff021916908363ffffffff1602179055505081600201600a81819054906101000a900461ffff1680929190610ec290612573565b91906101000a81548161ffff021916908361ffff16021790555050610ee6836116aa565b15610f3057610f2f8783600101546040518060400160405280600681526020017f7a6f6d626965000000000000000000000000000000000000000000000000000081525061104f565b5b869450505050610fc5565b82600201600a81819054906101000a900461ffff1680929190610f5d90612573565b91906101000a81548161ffff021916908361ffff1602179055505081600201600881819054906101000a900461ffff1680929190610f9a90612573565b91906101000a81548161ffff021916908361ffff16021790555050610fbe83611715565b8594505050505b5092915050565b610fd4611253565b600073ffffffffffffffffffffffffffffffffffffffff168173ffffffffffffffffffffffffffffffffffffffff1603611043576040517f08c379a000000000000000000000000000000000000000000000000000000000815260040161103a9061260f565b60405180910390fd5b61104c816112d1565b50565b826005600082815260200190815260200160002060009054906101000a900473ffffffffffffffffffffffffffffffffffffffff1673ffffffffffffffffffffffffffffffffffffffff163373ffffffffffffffffffffffffffffffffffffffff16146110f1576040517f08c379a00000000000000000000000000000000000000000000000000000000081526004016110e8906121b1565b60405180910390fd5b60006004858154811061110757611106611ea1565b5b90600052602060002090600302019050611120816116aa565b61115f576040517f08c379a00000000000000000000000000000000000000000000000000000000081526004016111569061267b565b60405180910390fd5b6002548461116d91906126ca565b9350600060028583600101546111839190611f2b565b61118d91906126fb565b90507f8d53323b21b9f304546f6d3e61cde865451064d614aa4912f395b755a9d8cad9846040516020016111c19190612768565b60405160208183030381529060405280519060200120036112035760636064826111eb91906126ca565b826111f6919061277f565b6112009190611f2b565b90505b6112426040518060400160405280600681526020017f4e6f4e616d650000000000000000000000000000000000000000000000000000815250826113da565b61124b82611715565b505050505050565b61125b611748565b73ffffffffffffffffffffffffffffffffffffffff16611279610b3a565b73ffffffffffffffffffffffffffffffffffffffff16146112cf576040517f08c379a00000000000000000000000000000000000000000000000000000000081526004016112c6906127ff565b60405180910390fd5b565b60008060009054906101000a900473ffffffffffffffffffffffffffffffffffffffff169050816000806101000a81548173ffffffffffffffffffffffffffffffffffffffff021916908373ffffffffffffffffffffffffffffffffffffffff1602179055508173ffffffffffffffffffffffffffffffffffffffff168173ffffffffffffffffffffffffffffffffffffffff167f8be0079c531659141344cd1fd0a4f28419497f9722a3daafe3b4186f6b6457e060405160405180910390a35050565b600080826040516020016113a99190612768565b6040516020818303038152906040528051906020012060001c9050600254816113d291906126ca565b915050919050565b60046040518060c00160405280848152602001838152602001600163ffffffff1681526020016003544261140e9190611f2b565b63ffffffff168152602001600061ffff168152602001600061ffff168152509080600181540180825580915050600190039060005260206000209060030201600090919091909150600082015181600001908161146b91906124a1565b506020820151816001015560408201518160020160006101000a81548163ffffffff021916908363ffffffff16021790555060608201518160020160046101000a81548163ffffffff021916908363ffffffff16021790555060808201518160020160086101000a81548161ffff021916908361ffff16021790555060a082015181600201600a6101000a81548161ffff021916908361ffff160217905550505060006001600480549050611520919061277f565b9050336005600083815260200190815260200160002060006101000a81548173ffffffffffffffffffffffffffffffffffffffff021916908373ffffffffffffffffffffffffffffffffffffffff160217905550600660003373ffffffffffffffffffffffffffffffffffffffff1673ffffffffffffffffffffffffffffffffffffffff16815260200190815260200160002060008154809291906115c490612065565b91905055507fe0bc367d57f255810f77a25ec7e4866c6dba3cd7b652945977390c9803f531398184846040516115fc9392919061281f565b60405180910390a1505050565b60006009600081548092919061161e90612065565b9190505550600082423360095460405160200161163d9392919061285d565b6040516020818303038152906040528051906020012060001c61166091906126ca565b90506116a16040518060400160405280601c81526020017f5b4c4f475d20637265617465642072616e646f6d206e756d6265723a0000000081525082611750565b80915050919050565b600080428360020160049054906101000a900463ffffffff1663ffffffff161115905061170c6040518060400160405280601781526020017f5b4c4f475d20697320726561647920746f20666565643f000000000000000000815250826117ec565b80915050919050565b600354426117239190611f2b565b8160020160046101000a81548163ffffffff021916908363ffffffff16021790555050565b600033905090565b6117e8828260405160240161176692919061289a565b6040516020818303038152906040527fb60e72cc000000000000000000000000000000000000000000000000000000007bffffffffffffffffffffffffffffffffffffffffffffffffffffffff19166020820180517bffffffffffffffffffffffffffffffffffffffffffffffffffffffff8381831617835250505050611888565b5050565b61188482826040516024016118029291906128e5565b6040516020818303038152906040527fc3b55635000000000000000000000000000000000000000000000000000000007bffffffffffffffffffffffffffffffffffffffffffffffffffffffff19166020820180517bffffffffffffffffffffffffffffffffffffffffffffffffffffffff8381831617835250505050611888565b5050565b60008151905060006a636f6e736f6c652e6c6f679050602083016000808483855afa5050505050565b6000604051905090565b600080fd5b600080fd5b6000819050919050565b6118d8816118c5565b81146118e357600080fd5b50565b6000813590506118f5816118cf565b92915050565b600060208284031215611911576119106118bb565b5b600061191f848285016118e6565b91505092915050565b611931816118c5565b82525050565b600060208201905061194c6000830184611928565b92915050565b60008060408385031215611969576119686118bb565b5b6000611977858286016118e6565b9250506020611988858286016118e6565b9150509250929050565b600081519050919050565b600082825260208201905092915050565b60005b838110156119cc5780820151818401526020810190506119b1565b60008484015250505050565b6000601f19601f8301169050919050565b60006119f482611992565b6119fe818561199d565b9350611a0e8185602086016119ae565b611a17816119d8565b840191505092915050565b600063ffffffff82169050919050565b611a3b81611a22565b82525050565b600061ffff82169050919050565b611a5881611a41565b82525050565b600060c0820190508181036000830152611a7881896119e9565b9050611a876020830188611928565b611a946040830187611a32565b611aa16060830186611a32565b611aae6080830185611a4f565b611abb60a0830184611a4f565b979650505050505050565b600073ffffffffffffffffffffffffffffffffffffffff82169050919050565b6000611af182611ac6565b9050919050565b611b0181611ae6565b8114611b0c57600080fd5b50565b600081359050611b1e81611af8565b92915050565b600060208284031215611b3a57611b396118bb565b5b6000611b4884828501611b0f565b91505092915050565b600081519050919050565b600082825260208201905092915050565b6000819050602082019050919050565b611b86816118c5565b82525050565b6000611b988383611b7d565b60208301905092915050565b6000602082019050919050565b6000611bbc82611b51565b611bc68185611b5c565b9350611bd183611b6d565b8060005b83811015611c02578151611be98882611b8c565b9750611bf483611ba4565b925050600181019050611bd5565b5085935050505092915050565b60006020820190508181036000830152611c298184611bb1565b905092915050565b611c3a81611ae6565b82525050565b6000602082019050611c556000830184611c31565b92915050565b600080fd5b600080fd5b7f4e487b7100000000000000000000000000000000000000000000000000000000600052604160045260246000fd5b611c9d826119d8565b810181811067ffffffffffffffff82111715611cbc57611cbb611c65565b5b80604052505050565b6000611ccf6118b1565b9050611cdb8282611c94565b919050565b600067ffffffffffffffff821115611cfb57611cfa611c65565b5b611d04826119d8565b9050602081019050919050565b82818337600083830152505050565b6000611d33611d2e84611ce0565b611cc5565b905082815260208101848484011115611d4f57611d4e611c60565b5b611d5a848285611d11565b509392505050565b600082601f830112611d7757611d76611c5b565b5b8135611d87848260208601611d20565b91505092915050565b600060208284031215611da657611da56118bb565b5b600082013567ffffffffffffffff811115611dc457611dc36118c0565b5b611dd084828501611d62565b91505092915050565b60008060408385031215611df057611def6118bb565b5b6000611dfe858286016118e6565b925050602083013567ffffffffffffffff811115611e1f57611e1e6118c0565b5b611e2b85828601611d62565b9150509250929050565b7f736f6d6520657468657273206e656564656420746f206c6576656c2075700000600082015250565b6000611e6b601e8361199d565b9150611e7682611e35565b602082019050919050565b60006020820190508181036000830152611e9a81611e5e565b9050919050565b7f4e487b7100000000000000000000000000000000000000000000000000000000600052603260045260246000fd5b7f4e487b7100000000000000000000000000000000000000000000000000000000600052601160045260246000fd5b6000611f0a82611a22565b915063ffffffff8203611f2057611f1f611ed0565b5b600182019050919050565b6000611f36826118c5565b9150611f41836118c5565b9250828201905080821115611f5957611f58611ed0565b5b92915050565b6000819050919050565b611f7a611f75826118c5565b611f5f565b82525050565b60008160601b9050919050565b6000611f9882611f80565b9050919050565b6000611faa82611f8d565b9050919050565b611fc2611fbd82611ae6565b611f9f565b82525050565b6000611fd48286611f69565b602082019150611fe48285611f69565b602082019150611ff48284611fb1565b601482019150819050949350505050565b7f4e487b7100000000000000000000000000000000000000000000000000000000600052602260045260246000fd5b6000600282049050600182168061204c57607f821691505b60208210810361205f5761205e612005565b5b50919050565b6000612070826118c5565b91507fffffffffffffffffffffffffffffffffffffffffffffffffffffffffffffffff82036120a2576120a1611ed0565b5b600182019050919050565b7f7a6f6d626965206c6576656c20746f6f206c6f7720746f206368616e6765206e60008201527f616d650000000000000000000000000000000000000000000000000000000000602082015250565b600061210960238361199d565b9150612114826120ad565b604082019050919050565b60006020820190508181036000830152612138816120fc565b9050919050565b7f6d6573736167652e73656e6465722073686f756c64206f776e20746865207a6f60008201527f6d62696500000000000000000000000000000000000000000000000000000000602082015250565b600061219b60248361199d565b91506121a68261213f565b604082019050919050565b600060208201905081810360008301526121ca8161218e565b9050919050565b7f796f7520617265206e6f7420746865206f776e6572206f662074686973207a6f60008201527f6d62696500000000000000000000000000000000000000000000000000000000602082015250565b600061222d60248361199d565b9150612238826121d1565b604082019050919050565b6000602082019050818103600083015261225c81612220565b9050919050565b7f4f6e6c79206f6e65207a6f6d626965206f626a6563742063616e20626520637260008201527f656174656420666f72206f6e6520616464726573730000000000000000000000602082015250565b60006122bf60358361199d565b91506122ca82612263565b604082019050919050565b600060208201905081810360008301526122ee816122b2565b9050919050565b60008190508160005260206000209050919050565b60006020601f8301049050919050565b600082821b905092915050565b6000600883026123577fffffffffffffffffffffffffffffffffffffffffffffffffffffffffffffffff8261231a565b612361868361231a565b95508019841693508086168417925050509392505050565b6000819050919050565b600061239e612399612394846118c5565b612379565b6118c5565b9050919050565b6000819050919050565b6123b883612383565b6123cc6123c4826123a5565b848454612327565b825550505050565b600090565b6123e16123d4565b6123ec8184846123af565b505050565b5b81811015612410576124056000826123d9565b6001810190506123f2565b5050565b601f82111561245557612426816122f5565b61242f8461230a565b8101602085101561243e578190505b61245261244a8561230a565b8301826123f1565b50505b505050565b600082821c905092915050565b60006124786000198460080261245a565b1980831691505092915050565b60006124918383612467565b9150826002028217905092915050565b6124aa82611992565b67ffffffffffffffff8111156124c3576124c2611c65565b5b6124cd8254612034565b6124d8828285612414565b600060209050601f83116001811461250b57600084156124f9578287015190505b6125038582612485565b86555061256b565b601f198416612519866122f5565b60005b828110156125415784890151825560018201915060208501945060208101905061251c565b8683101561255e578489015161255a601f891682612467565b8355505b6001600288020188555050505b505050505050565b600061257e82611a41565b915061ffff820361259257612591611ed0565b5b600182019050919050565b7f4f776e61626c653a206e6577206f776e657220697320746865207a65726f206160008201527f6464726573730000000000000000000000000000000000000000000000000000602082015250565b60006125f960268361199d565b91506126048261259d565b604082019050919050565b60006020820190508181036000830152612628816125ec565b9050919050565b7f74686973207a6f6d626965206973206e6f7420726561647920746f2066656564600082015250565b600061266560208361199d565b91506126708261262f565b602082019050919050565b6000602082019050818103600083015261269481612658565b9050919050565b7f4e487b7100000000000000000000000000000000000000000000000000000000600052601260045260246000fd5b60006126d5826118c5565b91506126e0836118c5565b9250826126f0576126ef61269b565b5b828206905092915050565b6000612706826118c5565b9150612711836118c5565b9250826127215761272061269b565b5b828204905092915050565b600081905092915050565b600061274282611992565b61274c818561272c565b935061275c8185602086016119ae565b80840191505092915050565b60006127748284612737565b915081905092915050565b600061278a826118c5565b9150612795836118c5565b92508282039050818111156127ad576127ac611ed0565b5b92915050565b7f4f776e61626c653a2063616c6c6572206973206e6f7420746865206f776e6572600082015250565b60006127e960208361199d565b91506127f4826127b3565b602082019050919050565b60006020820190508181036000830152612818816127dc565b9050919050565b60006060820190506128346000830186611928565b818103602083015261284681856119e9565b90506128556040830184611928565b949350505050565b60006128698286611f69565b6020820191506128798285611fb1565b6014820191506128898284611f69565b602082019150819050949350505050565b600060408201905081810360008301526128b481856119e9565b90506128c36020830184611928565b9392505050565b60008115159050919050565b6128df816128ca565b82525050565b600060408201905081810360008301526128ff81856119e9565b905061290e60208301846128d6565b939250505056fea264697066735822122091df74c3cc91e2420968024cbeb99c54868d617602dbe16a14c9b8d3b601f84064736f6c63430008110033",
  "linkReferences": {},
  "deployedLinkReferences": {}
}