{
  "_format": "hh-sol-artifact-1",
  "contractName": "ZombieFeeding",
  "sourceName": "contracts/ZombieFeeding.sol",
  "abi": [
    {
      "anonymous": false,
      "inputs": [
        {
          "indexed": false,
          "internalType": "uint256",
          "name": "zombieId",
          "type": "uint256"
        },
        {
          "indexed": false,
          "internalType": "string",
          "name": "name",
          "type": "string"
        },
        {
          "indexed": false,
          "internalType": "uint256",
          "name": "dna",
          "type": "uint256"
        }
      ],
      "name": "EventNewZombie",
      "type": "event"
    },
    {
      "anonymous": false,
      "inputs": [
        {
          "indexed": true,
          "internalType": "address",
          "name": "previousOwner",
          "type": "address"
        },
        {
          "indexed": true,
          "internalType": "address",
          "name": "newOwner",
          "type": "address"
        }
      ],
      "name": "OwnershipTransferred",
      "type": "event"
    },
    {
      "inputs": [
        {
          "internalType": "string",
          "name": "_name",
          "type": "string"
        }
      ],
      "name": "createRandomZombie",
      "outputs": [],
      "stateMutability": "nonpayable",
      "type": "function"
    },
    {
      "inputs": [
        {
          "internalType": "uint256",
          "name": "_zombieId",
          "type": "uint256"
        },
        {
          "internalType": "uint256",
          "name": "_kittyId",
          "type": "uint256"
        }
      ],
      "name": "feedOnKitty",
      "outputs": [],
      "stateMutability": "nonpayable",
      "type": "function"
    },
    {
      "inputs": [],
      "name": "getBalance",
      "outputs": [
        {
          "internalType": "uint256",
          "name": "",
          "type": "uint256"
        }
      ],
      "stateMutability": "view",
      "type": "function"
    },
    {
      "inputs": [],
      "name": "getOwnedZombiesCount",
      "outputs": [
        {
          "internalType": "uint256",
          "name": "",
          "type": "uint256"
        }
      ],
      "stateMutability": "view",
      "type": "function"
    },
    {
      "inputs": [],
      "name": "owner",
      "outputs": [
        {
          "internalType": "address",
          "name": "",
          "type": "address"
        }
      ],
      "stateMutability": "view",
      "type": "function"
    },
    {
      "inputs": [],
      "name": "renounceOwnership",
      "outputs": [],
      "stateMutability": "nonpayable",
      "type": "function"
    },
    {
      "inputs": [
        {
          "internalType": "address",
          "name": "_address",
          "type": "address"
        }
      ],
      "name": "setKittyContractAddress",
      "outputs": [],
      "stateMutability": "nonpayable",
      "type": "function"
    },
    {
      "inputs": [
        {
          "internalType": "address",
          "name": "newOwner",
          "type": "address"
        }
      ],
      "name": "transferOwnership",
      "outputs": [],
      "stateMutability": "nonpayable",
      "type": "function"
    },
    {
      "inputs": [],
      "name": "withdraw",
      "outputs": [],
      "stateMutability": "nonpayable",
      "type": "function"
    },
    {
      "inputs": [
        {
          "internalType": "uint256",
          "name": "",
          "type": "uint256"
        }
      ],
      "name": "zombieToOwner",
      "outputs": [
        {
          "internalType": "address",
          "name": "",
          "type": "address"
        }
      ],
      "stateMutability": "view",
      "type": "function"
    },
    {
      "inputs": [
        {
          "internalType": "uint256",
          "name": "",
          "type": "uint256"
        }
      ],
      "name": "zombies",
      "outputs": [
        {
          "internalType": "string",
          "name": "name",
          "type": "string"
        },
        {
          "internalType": "uint256",
          "name": "dna",
          "type": "uint256"
        },
        {
          "internalType": "uint32",
          "name": "level",
          "type": "uint32"
        },
        {
          "internalType": "uint32",
          "name": "readyTime",
          "type": "uint32"
        },
        {
          "internalType": "uint16",
          "name": "winCount",
          "type": "uint16"
        },
        {
          "internalType": "uint16",
          "name": "lossCount",
          "type": "uint16"
        }
      ],
      "stateMutability": "view",
      "type": "function"
    }
  ],
  "bytecode": "0x60806040526010600155600154600a6200001a9190620002b1565b600255620151806003553480156200003157600080fd5b5062000052620000466200005860201b60201c565b6200006060201b60201c565b62000302565b600033905090565b60008060009054906101000a900473ffffffffffffffffffffffffffffffffffffffff169050816000806101000a81548173ffffffffffffffffffffffffffffffffffffffff021916908373ffffffffffffffffffffffffffffffffffffffff1602179055508173ffffffffffffffffffffffffffffffffffffffff168173ffffffffffffffffffffffffffffffffffffffff167f8be0079c531659141344cd1fd0a4f28419497f9722a3daafe3b4186f6b6457e060405160405180910390a35050565b7f4e487b7100000000000000000000000000000000000000000000000000000000600052601160045260246000fd5b60008160011c9050919050565b6000808291508390505b6001851115620001b2578086048111156200018a576200018962000124565b5b60018516156200019a5780820291505b8081029050620001aa8562000153565b94506200016a565b94509492505050565b600082620001cd5760019050620002a0565b81620001dd5760009050620002a0565b8160018114620001f65760028114620002015762000237565b6001915050620002a0565b60ff84111562000216576200021562000124565b5b8360020a91508482111562000230576200022f62000124565b5b50620002a0565b5060208310610133831016604e8410600b8410161715620002715782820a9050838111156200026b576200026a62000124565b5b620002a0565b62000280848484600162000160565b925090508184048111156200029a576200029962000124565b5b81810290505b9392505050565b6000819050919050565b6000620002be82620002a7565b9150620002cb83620002a7565b9250620002fa7fffffffffffffffffffffffffffffffffffffffffffffffffffffffffffffffff8484620001bb565b905092915050565b611a3680620003126000396000f3fe608060405234801561001057600080fd5b50600436106100a95760003560e01c80635f4623f1116100715780635f4623f114610157578063715018a6146101735780637bff0a011461017d5780638da5cb5b14610199578063d6cc3526146101b7578063f2fde38b146101d5576100a9565b806312065fe0146100ae57806317a7f4cc146100cc5780632052465e146100e85780633ccfd60b1461011d578063528b7b8f14610127575b600080fd5b6100b66101f1565b6040516100c39190610d44565b60405180910390f35b6100e660048036038101906100e19190610d9f565b6101f9565b005b61010260048036038101906100fd9190610ddf565b61027b565b60405161011496959493929190610ed8565b60405180910390f35b61012561038b565b005b610141600480360381019061013c9190610ddf565b6103e3565b60405161014e9190610f81565b60405180910390f35b610171600480360381019061016c9190610fc8565b610416565b005b61017b610462565b005b6101976004803603810190610192919061112a565b610476565b005b6101a1610513565b6040516101ae9190610f81565b60405180910390f35b6101bf61053c565b6040516101cc9190610d44565b60405180910390f35b6101ef60048036038101906101ea9190610fc8565b610583565b005b600047905090565b6000814261020791906111a2565b443360405160200161021b9392919061123f565b6040516020818303038152906040528051906020012060001c905061027683826040518060400160405280600581526020017f6b69747479000000000000000000000000000000000000000000000000000000815250610606565b505050565b6004818154811061028b57600080fd5b90600052602060002090600302016000915090508060000180546102ae906112ab565b80601f01602080910402602001604051908101604052809291908181526020018280546102da906112ab565b80156103275780601f106102fc57610100808354040283529160200191610327565b820191906000526020600020905b81548152906001019060200180831161030a57829003601f168201915b5050505050908060010154908060020160009054906101000a900463ffffffff16908060020160049054906101000a900463ffffffff16908060020160089054906101000a900461ffff169080600201600a9054906101000a900461ffff16905086565b61039361080a565b61039b610513565b73ffffffffffffffffffffffffffffffffffffffff166108fc479081150290604051600060405180830381858888f193505050501580156103e0573d6000803e3d6000fd5b50565b60056020528060005260406000206000915054906101000a900473ffffffffffffffffffffffffffffffffffffffff1681565b61041e61080a565b80600760006101000a81548173ffffffffffffffffffffffffffffffffffffffff021916908373ffffffffffffffffffffffffffffffffffffffff16021790555050565b61046a61080a565b6104746000610888565b565b600660003373ffffffffffffffffffffffffffffffffffffffff1673ffffffffffffffffffffffffffffffffffffffff168152602001908152602001600020546000146104f8576040517f08c379a00000000000000000000000000000000000000000000000000000000081526004016104ef9061134e565b60405180910390fd5b60006105038261094c565b905061050f8282610991565b5050565b60008060009054906101000a900473ffffffffffffffffffffffffffffffffffffffff16905090565b6000600660003373ffffffffffffffffffffffffffffffffffffffff1673ffffffffffffffffffffffffffffffffffffffff16815260200190815260200160002054905090565b61058b61080a565b600073ffffffffffffffffffffffffffffffffffffffff168173ffffffffffffffffffffffffffffffffffffffff16036105fa576040517f08c379a00000000000000000000000000000000000000000000000000000000081526004016105f1906113e0565b60405180910390fd5b61060381610888565b50565b826005600082815260200190815260200160002060009054906101000a900473ffffffffffffffffffffffffffffffffffffffff1673ffffffffffffffffffffffffffffffffffffffff163373ffffffffffffffffffffffffffffffffffffffff16146106a8576040517f08c379a000000000000000000000000000000000000000000000000000000000815260040161069f90611472565b60405180910390fd5b6000600485815481106106be576106bd611492565b5b906000526020600020906003020190506106d781610bc0565b610716576040517f08c379a000000000000000000000000000000000000000000000000000000000815260040161070d9061150d565b60405180910390fd5b60025484610724919061155c565b93506000600285836001015461073a91906111a2565b610744919061158d565b90507f8d53323b21b9f304546f6d3e61cde865451064d614aa4912f395b755a9d8cad98460405160200161077891906115fa565b60405160208183030381529060405280519060200120036107ba5760636064826107a2919061155c565b826107ad9190611611565b6107b791906111a2565b90505b6107f96040518060400160405280600681526020017f4e6f4e616d65000000000000000000000000000000000000000000000000000081525082610991565b61080282610c2b565b505050505050565b610812610c5e565b73ffffffffffffffffffffffffffffffffffffffff16610830610513565b73ffffffffffffffffffffffffffffffffffffffff1614610886576040517f08c379a000000000000000000000000000000000000000000000000000000000815260040161087d90611691565b60405180910390fd5b565b60008060009054906101000a900473ffffffffffffffffffffffffffffffffffffffff169050816000806101000a81548173ffffffffffffffffffffffffffffffffffffffff021916908373ffffffffffffffffffffffffffffffffffffffff1602179055508173ffffffffffffffffffffffffffffffffffffffff168173ffffffffffffffffffffffffffffffffffffffff167f8be0079c531659141344cd1fd0a4f28419497f9722a3daafe3b4186f6b6457e060405160405180910390a35050565b6000808260405160200161096091906115fa565b6040516020818303038152906040528051906020012060001c905060025481610989919061155c565b915050919050565b60046040518060c00160405280848152602001838152602001600163ffffffff168152602001600354426109c591906111a2565b63ffffffff168152602001600061ffff168152602001600061ffff1681525090806001815401808255809150506001900390600052602060002090600302016000909190919091506000820151816000019081610a22919061185d565b506020820151816001015560408201518160020160006101000a81548163ffffffff021916908363ffffffff16021790555060608201518160020160046101000a81548163ffffffff021916908363ffffffff16021790555060808201518160020160086101000a81548161ffff021916908361ffff16021790555060a082015181600201600a6101000a81548161ffff021916908361ffff160217905550505060006001600480549050610ad79190611611565b9050336005600083815260200190815260200160002060006101000a81548173ffffffffffffffffffffffffffffffffffffffff021916908373ffffffffffffffffffffffffffffffffffffffff160217905550600660003373ffffffffffffffffffffffffffffffffffffffff1673ffffffffffffffffffffffffffffffffffffffff1681526020019081526020016000206000815480929190610b7b9061192f565b91905055507fe0bc367d57f255810f77a25ec7e4866c6dba3cd7b652945977390c9803f53139818484604051610bb393929190611977565b60405180910390a1505050565b600080428360020160049054906101000a900463ffffffff1663ffffffff1611159050610c226040518060400160405280601781526020017f5b4c4f475d20697320726561647920746f20666565643f00000000000000000081525082610c66565b80915050919050565b60035442610c3991906111a2565b8160020160046101000a81548163ffffffff021916908363ffffffff16021790555050565b600033905090565b610cfe8282604051602401610c7c9291906119d0565b6040516020818303038152906040527fc3b55635000000000000000000000000000000000000000000000000000000007bffffffffffffffffffffffffffffffffffffffffffffffffffffffff19166020820180517bffffffffffffffffffffffffffffffffffffffffffffffffffffffff8381831617835250505050610d02565b5050565b60008151905060006a636f6e736f6c652e6c6f679050602083016000808483855afa5050505050565b6000819050919050565b610d3e81610d2b565b82525050565b6000602082019050610d596000830184610d35565b92915050565b6000604051905090565b600080fd5b600080fd5b610d7c81610d2b565b8114610d8757600080fd5b50565b600081359050610d9981610d73565b92915050565b60008060408385031215610db657610db5610d69565b5b6000610dc485828601610d8a565b9250506020610dd585828601610d8a565b9150509250929050565b600060208284031215610df557610df4610d69565b5b6000610e0384828501610d8a565b91505092915050565b600081519050919050565b600082825260208201905092915050565b60005b83811015610e46578082015181840152602081019050610e2b565b60008484015250505050565b6000601f19601f8301169050919050565b6000610e6e82610e0c565b610e788185610e17565b9350610e88818560208601610e28565b610e9181610e52565b840191505092915050565b600063ffffffff82169050919050565b610eb581610e9c565b82525050565b600061ffff82169050919050565b610ed281610ebb565b82525050565b600060c0820190508181036000830152610ef28189610e63565b9050610f016020830188610d35565b610f0e6040830187610eac565b610f1b6060830186610eac565b610f286080830185610ec9565b610f3560a0830184610ec9565b979650505050505050565b600073ffffffffffffffffffffffffffffffffffffffff82169050919050565b6000610f6b82610f40565b9050919050565b610f7b81610f60565b82525050565b6000602082019050610f966000830184610f72565b92915050565b610fa581610f60565b8114610fb057600080fd5b50565b600081359050610fc281610f9c565b92915050565b600060208284031215610fde57610fdd610d69565b5b6000610fec84828501610fb3565b91505092915050565b600080fd5b600080fd5b7f4e487b7100000000000000000000000000000000000000000000000000000000600052604160045260246000fd5b61103782610e52565b810181811067ffffffffffffffff8211171561105657611055610fff565b5b80604052505050565b6000611069610d5f565b9050611075828261102e565b919050565b600067ffffffffffffffff82111561109557611094610fff565b5b61109e82610e52565b9050602081019050919050565b82818337600083830152505050565b60006110cd6110c88461107a565b61105f565b9050828152602081018484840111156110e9576110e8610ffa565b5b6110f48482856110ab565b509392505050565b600082601f83011261111157611110610ff5565b5b81356111218482602086016110ba565b91505092915050565b6000602082840312156111405761113f610d69565b5b600082013567ffffffffffffffff81111561115e5761115d610d6e565b5b61116a848285016110fc565b91505092915050565b7f4e487b7100000000000000000000000000000000000000000000000000000000600052601160045260246000fd5b60006111ad82610d2b565b91506111b883610d2b565b92508282019050808211156111d0576111cf611173565b5b92915050565b6000819050919050565b6111f16111ec82610d2b565b6111d6565b82525050565b60008160601b9050919050565b600061120f826111f7565b9050919050565b600061122182611204565b9050919050565b61123961123482610f60565b611216565b82525050565b600061124b82866111e0565b60208201915061125b82856111e0565b60208201915061126b8284611228565b601482019150819050949350505050565b7f4e487b7100000000000000000000000000000000000000000000000000000000600052602260045260246000fd5b600060028204905060018216806112c357607f821691505b6020821081036112d6576112d561127c565b5b50919050565b7f4f6e6c79206f6e65207a6f6d626965206f626a6563742063616e20626520637260008201527f656174656420666f72206f6e6520616464726573730000000000000000000000602082015250565b6000611338603583610e17565b9150611343826112dc565b604082019050919050565b600060208201905081810360008301526113678161132b565b9050919050565b7f4f776e61626c653a206e6577206f776e657220697320746865207a65726f206160008201527f6464726573730000000000000000000000000000000000000000000000000000602082015250565b60006113ca602683610e17565b91506113d58261136e565b604082019050919050565b600060208201905081810360008301526113f9816113bd565b9050919050565b7f6d6573736167652e73656e6465722073686f756c64206f776e20746865207a6f60008201527f6d62696500000000000000000000000000000000000000000000000000000000602082015250565b600061145c602483610e17565b915061146782611400565b604082019050919050565b6000602082019050818103600083015261148b8161144f565b9050919050565b7f4e487b7100000000000000000000000000000000000000000000000000000000600052603260045260246000fd5b7f74686973207a6f6d626965206973206e6f7420726561647920746f2066656564600082015250565b60006114f7602083610e17565b9150611502826114c1565b602082019050919050565b60006020820190508181036000830152611526816114ea565b9050919050565b7f4e487b7100000000000000000000000000000000000000000000000000000000600052601260045260246000fd5b600061156782610d2b565b915061157283610d2b565b9250826115825761158161152d565b5b828206905092915050565b600061159882610d2b565b91506115a383610d2b565b9250826115b3576115b261152d565b5b828204905092915050565b600081905092915050565b60006115d482610e0c565b6115de81856115be565b93506115ee818560208601610e28565b80840191505092915050565b600061160682846115c9565b915081905092915050565b600061161c82610d2b565b915061162783610d2b565b925082820390508181111561163f5761163e611173565b5b92915050565b7f4f776e61626c653a2063616c6c6572206973206e6f7420746865206f776e6572600082015250565b600061167b602083610e17565b915061168682611645565b602082019050919050565b600060208201905081810360008301526116aa8161166e565b9050919050565b60008190508160005260206000209050919050565b60006020601f8301049050919050565b600082821b905092915050565b6000600883026117137fffffffffffffffffffffffffffffffffffffffffffffffffffffffffffffffff826116d6565b61171d86836116d6565b95508019841693508086168417925050509392505050565b6000819050919050565b600061175a61175561175084610d2b565b611735565b610d2b565b9050919050565b6000819050919050565b6117748361173f565b61178861178082611761565b8484546116e3565b825550505050565b600090565b61179d611790565b6117a881848461176b565b505050565b5b818110156117cc576117c1600082611795565b6001810190506117ae565b5050565b601f821115611811576117e2816116b1565b6117eb846116c6565b810160208510156117fa578190505b61180e611806856116c6565b8301826117ad565b50505b505050565b600082821c905092915050565b600061183460001984600802611816565b1980831691505092915050565b600061184d8383611823565b9150826002028217905092915050565b61186682610e0c565b67ffffffffffffffff81111561187f5761187e610fff565b5b61188982546112ab565b6118948282856117d0565b600060209050601f8311600181146118c757600084156118b5578287015190505b6118bf8582611841565b865550611927565b601f1984166118d5866116b1565b60005b828110156118fd578489015182556001820191506020850194506020810190506118d8565b8683101561191a5784890151611916601f891682611823565b8355505b6001600288020188555050505b505050505050565b600061193a82610d2b565b91507fffffffffffffffffffffffffffffffffffffffffffffffffffffffffffffffff820361196c5761196b611173565b5b600182019050919050565b600060608201905061198c6000830186610d35565b818103602083015261199e8185610e63565b90506119ad6040830184610d35565b949350505050565b60008115159050919050565b6119ca816119b5565b82525050565b600060408201905081810360008301526119ea8185610e63565b90506119f960208301846119c1565b939250505056fea2646970667358221220a51cfe3aa137665c6f2dfdca6cf518edda7f6b6e97a037a88d8e8afb486070ea64736f6c63430008110033",
  "linkReferences": {},
  "deployedLinkReferences": {}
}