{
  "_format": "hh-sol-artifact-1",
  "contractName": "ZombieOwnership",
  "sourceName": "contracts/ZombieOwnership.sol",
  "abi": [
    {
      "anonymous": false,
      "inputs": [
        {
          "indexed": true,
          "internalType": "address",
          "name": "_owner",
          "type": "address"
        },
        {
          "indexed": true,
          "internalType": "address",
          "name": "_approved",
          "type": "address"
        },
        {
          "indexed": false,
          "internalType": "uint256",
          "name": "_tokenId",
          "type": "uint256"
        }
      ],
      "name": "Approval",
      "type": "event"
    },
    {
      "anonymous": false,
      "inputs": [
        {
          "indexed": false,
          "internalType": "uint256",
          "name": "zombieId",
          "type": "uint256"
        },
        {
          "indexed": false,
          "internalType": "string",
          "name": "name",
          "type": "string"
        },
        {
          "indexed": false,
          "internalType": "uint256",
          "name": "dna",
          "type": "uint256"
        }
      ],
      "name": "EventNewZombie",
      "type": "event"
    },
    {
      "anonymous": false,
      "inputs": [
        {
          "indexed": true,
          "internalType": "address",
          "name": "previousOwner",
          "type": "address"
        },
        {
          "indexed": true,
          "internalType": "address",
          "name": "newOwner",
          "type": "address"
        }
      ],
      "name": "OwnershipTransferred",
      "type": "event"
    },
    {
      "anonymous": false,
      "inputs": [
        {
          "indexed": true,
          "internalType": "address",
          "name": "_from",
          "type": "address"
        },
        {
          "indexed": true,
          "internalType": "address",
          "name": "_to",
          "type": "address"
        },
        {
          "indexed": false,
          "internalType": "uint256",
          "name": "_tokenId",
          "type": "uint256"
        }
      ],
      "name": "Transfer",
      "type": "event"
    },
    {
      "inputs": [
        {
          "internalType": "address",
          "name": "_to",
          "type": "address"
        },
        {
          "internalType": "uint256",
          "name": "_tokenId",
          "type": "uint256"
        }
      ],
      "name": "approve",
      "outputs": [],
      "stateMutability": "nonpayable",
      "type": "function"
    },
    {
      "inputs": [
        {
          "internalType": "uint256",
          "name": "_zombieId",
          "type": "uint256"
        },
        {
          "internalType": "uint256",
          "name": "_targetId",
          "type": "uint256"
        }
      ],
      "name": "attack",
      "outputs": [
        {
          "internalType": "uint256",
          "name": "",
          "type": "uint256"
        }
      ],
      "stateMutability": "nonpayable",
      "type": "function"
    },
    {
      "inputs": [
        {
          "internalType": "address",
          "name": "_owner",
          "type": "address"
        }
      ],
      "name": "balanceOf",
      "outputs": [
        {
          "internalType": "uint256",
          "name": "_balance",
          "type": "uint256"
        }
      ],
      "stateMutability": "view",
      "type": "function"
    },
    {
      "inputs": [
        {
          "internalType": "uint256",
          "name": "_zombieId",
          "type": "uint256"
        },
        {
          "internalType": "uint256",
          "name": "_newDna",
          "type": "uint256"
        }
      ],
      "name": "changeDna",
      "outputs": [],
      "stateMutability": "nonpayable",
      "type": "function"
    },
    {
      "inputs": [
        {
          "internalType": "uint256",
          "name": "_zombieId",
          "type": "uint256"
        },
        {
          "internalType": "string",
          "name": "_newName",
          "type": "string"
        }
      ],
      "name": "changeName",
      "outputs": [],
      "stateMutability": "nonpayable",
      "type": "function"
    },
    {
      "inputs": [
        {
          "internalType": "string",
          "name": "_name",
          "type": "string"
        }
      ],
      "name": "createRandomZombie",
      "outputs": [],
      "stateMutability": "nonpayable",
      "type": "function"
    },
    {
      "inputs": [
        {
          "internalType": "uint256",
          "name": "_zombieId",
          "type": "uint256"
        },
        {
          "internalType": "uint256",
          "name": "_kittyId",
          "type": "uint256"
        }
      ],
      "name": "feedOnKitty",
      "outputs": [],
      "stateMutability": "nonpayable",
      "type": "function"
    },
    {
      "inputs": [],
      "name": "getBalance",
      "outputs": [
        {
          "internalType": "uint256",
          "name": "",
          "type": "uint256"
        }
      ],
      "stateMutability": "view",
      "type": "function"
    },
    {
      "inputs": [],
      "name": "getLevelUpFee",
      "outputs": [
        {
          "internalType": "uint256",
          "name": "",
          "type": "uint256"
        }
      ],
      "stateMutability": "view",
      "type": "function"
    },
    {
      "inputs": [],
      "name": "getOwnedZombiesCount",
      "outputs": [
        {
          "internalType": "uint256",
          "name": "",
          "type": "uint256"
        }
      ],
      "stateMutability": "view",
      "type": "function"
    },
    {
      "inputs": [
        {
          "internalType": "address",
          "name": "_owner",
          "type": "address"
        }
      ],
      "name": "getZombiesByOwner",
      "outputs": [
        {
          "internalType": "uint256[]",
          "name": "",
          "type": "uint256[]"
        }
      ],
      "stateMutability": "view",
      "type": "function"
    },
    {
      "inputs": [
        {
          "internalType": "uint256",
          "name": "_zombieId",
          "type": "uint256"
        }
      ],
      "name": "levelUp",
      "outputs": [],
      "stateMutability": "payable",
      "type": "function"
    },
    {
      "inputs": [],
      "name": "owner",
      "outputs": [
        {
          "internalType": "address",
          "name": "",
          "type": "address"
        }
      ],
      "stateMutability": "view",
      "type": "function"
    },
    {
      "inputs": [
        {
          "internalType": "uint256",
          "name": "_tokenId",
          "type": "uint256"
        }
      ],
      "name": "ownerOf",
      "outputs": [
        {
          "internalType": "address",
          "name": "_owner",
          "type": "address"
        }
      ],
      "stateMutability": "view",
      "type": "function"
    },
    {
      "inputs": [],
      "name": "renounceOwnership",
      "outputs": [],
      "stateMutability": "nonpayable",
      "type": "function"
    },
    {
      "inputs": [
        {
          "internalType": "address",
          "name": "_address",
          "type": "address"
        }
      ],
      "name": "setKittyContractAddress",
      "outputs": [],
      "stateMutability": "nonpayable",
      "type": "function"
    },
    {
      "inputs": [
        {
          "internalType": "uint256",
          "name": "_fee",
          "type": "uint256"
        }
      ],
      "name": "setLevelUpFee",
      "outputs": [],
      "stateMutability": "nonpayable",
      "type": "function"
    },
    {
      "inputs": [
        {
          "internalType": "uint256",
          "name": "_tokenId",
          "type": "uint256"
        }
      ],
      "name": "takeOwnership",
      "outputs": [],
      "stateMutability": "nonpayable",
      "type": "function"
    },
    {
      "inputs": [
        {
          "internalType": "address",
          "name": "_to",
          "type": "address"
        },
        {
          "internalType": "uint256",
          "name": "_tokenId",
          "type": "uint256"
        }
      ],
      "name": "transfer",
      "outputs": [],
      "stateMutability": "nonpayable",
      "type": "function"
    },
    {
      "inputs": [
        {
          "internalType": "address",
          "name": "newOwner",
          "type": "address"
        }
      ],
      "name": "transferOwnership",
      "outputs": [],
      "stateMutability": "nonpayable",
      "type": "function"
    },
    {
      "inputs": [],
      "name": "withdraw",
      "outputs": [],
      "stateMutability": "nonpayable",
      "type": "function"
    },
    {
      "inputs": [
        {
          "internalType": "uint256",
          "name": "",
          "type": "uint256"
        }
      ],
      "name": "zombieToOwner",
      "outputs": [
        {
          "internalType": "address",
          "name": "",
          "type": "address"
        }
      ],
      "stateMutability": "view",
      "type": "function"
    },
    {
      "inputs": [
        {
          "internalType": "uint256",
          "name": "",
          "type": "uint256"
        }
      ],
      "name": "zombies",
      "outputs": [
        {
          "internalType": "string",
          "name": "name",
          "type": "string"
        },
        {
          "internalType": "uint256",
          "name": "dna",
          "type": "uint256"
        },
        {
          "internalType": "uint32",
          "name": "level",
          "type": "uint32"
        },
        {
          "internalType": "uint32",
          "name": "readyTime",
          "type": "uint32"
        },
        {
          "internalType": "uint16",
          "name": "winCount",
          "type": "uint16"
        },
        {
          "internalType": "uint16",
          "name": "lossCount",
          "type": "uint16"
        }
      ],
      "stateMutability": "view",
      "type": "function"
    }
  ],
  "bytecode": "0x60806040526010600155600154600a6200001a9190620002c6565b6002556201518060035566038d7ea4c6800060085560006009556046600a553480156200004657600080fd5b50620000676200005b6200006d60201b60201c565b6200007560201b60201c565b62000317565b600033905090565b60008060009054906101000a900473ffffffffffffffffffffffffffffffffffffffff169050816000806101000a81548173ffffffffffffffffffffffffffffffffffffffff021916908373ffffffffffffffffffffffffffffffffffffffff1602179055508173ffffffffffffffffffffffffffffffffffffffff168173ffffffffffffffffffffffffffffffffffffffff167f8be0079c531659141344cd1fd0a4f28419497f9722a3daafe3b4186f6b6457e060405160405180910390a35050565b7f4e487b7100000000000000000000000000000000000000000000000000000000600052601160045260246000fd5b60008160011c9050919050565b6000808291508390505b6001851115620001c7578086048111156200019f576200019e62000139565b5b6001851615620001af5780820291505b8081029050620001bf8562000168565b94506200017f565b94509492505050565b600082620001e25760019050620002b5565b81620001f25760009050620002b5565b81600181146200020b576002811462000216576200024c565b6001915050620002b5565b60ff8411156200022b576200022a62000139565b5b8360020a91508482111562000245576200024462000139565b5b50620002b5565b5060208310610133831016604e8410600b8410161715620002865782820a90508381111562000280576200027f62000139565b5b620002b5565b62000295848484600162000175565b92509050818404811115620002af57620002ae62000139565b5b81810290505b9392505050565b6000819050919050565b6000620002d382620002bc565b9150620002e083620002bc565b92506200030f7fffffffffffffffffffffffffffffffffffffffffffffffffffffffffffffffff8484620001d0565b905092915050565b612fe280620003276000396000f3fe6080604052600436106101405760003560e01c80636b2f60c8116100b6578063b2e6ceeb1161006f578063b2e6ceeb1461043c578063c39cbef114610465578063ccf670f81461048e578063d6cc3526146104b7578063e1fa7638146104e2578063f2fde38b1461051f57610140565b80636b2f60c81461034057806370a082311461036b578063715018a6146103a85780637bff0a01146103bf5780638da5cb5b146103e8578063a9059cbb1461041357610140565b80633ccfd60b116101085780633ccfd60b146102205780634412e10414610237578063528b7b8f146102745780635f4623f1146102b15780635faf2880146102da5780636352211e1461030357610140565b8063095ea7b3146101455780630ce90ec21461016e57806312065fe01461018a57806317a7f4cc146101b55780632052465e146101de575b600080fd5b34801561015157600080fd5b5061016c60048036038101906101679190611fb0565b610548565b005b61018860048036038101906101839190611ff0565b6106a6565b005b34801561019657600080fd5b5061019f610751565b6040516101ac919061202c565b60405180910390f35b3480156101c157600080fd5b506101dc60048036038101906101d79190612047565b610759565b005b3480156101ea57600080fd5b5061020560048036038101906102009190611ff0565b6107db565b60405161021796959493929190612153565b60405180910390f35b34801561022c57600080fd5b506102356108eb565b005b34801561024357600080fd5b5061025e600480360381019061025991906121bb565b610943565b60405161026b91906122a6565b60405180910390f35b34801561028057600080fd5b5061029b60048036038101906102969190611ff0565b610a95565b6040516102a891906122d7565b60405180910390f35b3480156102bd57600080fd5b506102d860048036038101906102d391906121bb565b610ac8565b005b3480156102e657600080fd5b5061030160048036038101906102fc9190612047565b610b14565b005b34801561030f57600080fd5b5061032a60048036038101906103259190611ff0565b610d09565b60405161033791906122d7565b60405180910390f35b34801561034c57600080fd5b50610355610d46565b604051610362919061202c565b60405180910390f35b34801561037757600080fd5b50610392600480360381019061038d91906121bb565b610d50565b60405161039f919061202c565b60405180910390f35b3480156103b457600080fd5b506103bd610d99565b005b3480156103cb57600080fd5b506103e660048036038101906103e19190612427565b610dad565b005b3480156103f457600080fd5b506103fd610e4a565b60405161040a91906122d7565b60405180910390f35b34801561041f57600080fd5b5061043a60048036038101906104359190611fb0565b610e73565b005b34801561044857600080fd5b50610463600480360381019061045e9190611ff0565b610f25565b005b34801561047157600080fd5b5061048c60048036038101906104879190612470565b610fa6565b005b34801561049a57600080fd5b506104b560048036038101906104b09190611ff0565b611103565b005b3480156104c357600080fd5b506104cc611115565b6040516104d9919061202c565b60405180910390f35b3480156104ee57600080fd5b5061050960048036038101906105049190612047565b61115c565b604051610516919061202c565b60405180910390f35b34801561052b57600080fd5b50610546600480360381019061054191906121bb565b61140f565b005b806005600082815260200190815260200160002060009054906101000a900473ffffffffffffffffffffffffffffffffffffffff1673ffffffffffffffffffffffffffffffffffffffff163373ffffffffffffffffffffffffffffffffffffffff16146105ea576040517f08c379a00000000000000000000000000000000000000000000000000000000081526004016105e19061253e565b60405180910390fd5b82600b600084815260200190815260200160002060006101000a81548173ffffffffffffffffffffffffffffffffffffffff021916908373ffffffffffffffffffffffffffffffffffffffff1602179055508273ffffffffffffffffffffffffffffffffffffffff163373ffffffffffffffffffffffffffffffffffffffff167f8c5be1e5ebec7d5bd14f71427d1e84f3dd0314c0f7b2291e5b200ac8c7c3b92584604051610699919061202c565b60405180910390a3505050565b60085434146106ea576040517f08c379a00000000000000000000000000000000000000000000000000000000081526004016106e1906125aa565b60405180910390fd5b600481815481106106fe576106fd6125ca565b5b9060005260206000209060030201600201600081819054906101000a900463ffffffff168092919061072f90612628565b91906101000a81548163ffffffff021916908363ffffffff1602179055505050565b600047905090565b600081426107679190612654565b443360405160200161077b939291906126f1565b6040516020818303038152906040528051906020012060001c90506107d683826040518060400160405280600581526020017f6b69747479000000000000000000000000000000000000000000000000000000815250611492565b505050565b600481815481106107eb57600080fd5b906000526020600020906003020160009150905080600001805461080e9061275d565b80601f016020809104026020016040519081016040528092919081815260200182805461083a9061275d565b80156108875780601f1061085c57610100808354040283529160200191610887565b820191906000526020600020905b81548152906001019060200180831161086a57829003601f168201915b5050505050908060010154908060020160009054906101000a900463ffffffff16908060020160049054906101000a900463ffffffff16908060020160089054906101000a900461ffff169080600201600a9054906101000a900461ffff16905086565b6108f3611696565b6108fb610e4a565b73ffffffffffffffffffffffffffffffffffffffff166108fc479081150290604051600060405180830381858888f19350505050158015610940573d6000803e3d6000fd5b50565b60606000600660008473ffffffffffffffffffffffffffffffffffffffff1673ffffffffffffffffffffffffffffffffffffffff1681526020019081526020016000205467ffffffffffffffff8111156109a05761099f6122fc565b5b6040519080825280602002602001820160405280156109ce5781602001602082028036833780820191505090505b5090506000805b600480549050811015610a8a578473ffffffffffffffffffffffffffffffffffffffff166005600083815260200190815260200160002060009054906101000a900473ffffffffffffffffffffffffffffffffffffffff1673ffffffffffffffffffffffffffffffffffffffff1603610a775780838381518110610a5c57610a5b6125ca565b5b6020026020010181815250508180610a739061278e565b9250505b8080610a829061278e565b9150506109d5565b508192505050919050565b60056020528060005260406000206000915054906101000a900473ffffffffffffffffffffffffffffffffffffffff1681565b610ad0611696565b80600760006101000a81548173ffffffffffffffffffffffffffffffffffffffff021916908373ffffffffffffffffffffffffffffffffffffffff16021790555050565b6014828160048281548110610b2c57610b2b6125ca565b5b906000526020600020906003020160020160009054906101000a900463ffffffff1663ffffffff161015610b95576040517f08c379a0000000000000000000000000000000000000000000000000000000008152600401610b8c90612848565b60405180910390fd5b836005600082815260200190815260200160002060009054906101000a900473ffffffffffffffffffffffffffffffffffffffff1673ffffffffffffffffffffffffffffffffffffffff163373ffffffffffffffffffffffffffffffffffffffff1614610c37576040517f08c379a0000000000000000000000000000000000000000000000000000000008152600401610c2e9061253e565b60405180910390fd5b3373ffffffffffffffffffffffffffffffffffffffff166005600087815260200190815260200160002060009054906101000a900473ffffffffffffffffffffffffffffffffffffffff1673ffffffffffffffffffffffffffffffffffffffff1614610cd8576040517f08c379a0000000000000000000000000000000000000000000000000000000008152600401610ccf906128da565b60405180910390fd5b8360048681548110610ced57610cec6125ca565b5b9060005260206000209060030201600101819055505050505050565b60006005600083815260200190815260200160002060009054906101000a900473ffffffffffffffffffffffffffffffffffffffff169050919050565b6000600854905090565b6000600660008373ffffffffffffffffffffffffffffffffffffffff1673ffffffffffffffffffffffffffffffffffffffff168152602001908152602001600020549050919050565b610da1611696565b610dab6000611714565b565b600660003373ffffffffffffffffffffffffffffffffffffffff1673ffffffffffffffffffffffffffffffffffffffff16815260200190815260200160002054600014610e2f576040517f08c379a0000000000000000000000000000000000000000000000000000000008152600401610e269061296c565b60405180910390fd5b6000610e3a826117d8565b9050610e46828261181d565b5050565b60008060009054906101000a900473ffffffffffffffffffffffffffffffffffffffff16905090565b806005600082815260200190815260200160002060009054906101000a900473ffffffffffffffffffffffffffffffffffffffff1673ffffffffffffffffffffffffffffffffffffffff163373ffffffffffffffffffffffffffffffffffffffff1614610f15576040517f08c379a0000000000000000000000000000000000000000000000000000000008152600401610f0c9061253e565b60405180910390fd5b610f20338484611a4c565b505050565b3373ffffffffffffffffffffffffffffffffffffffff16600b600083815260200190815260200160002060009054906101000a900473ffffffffffffffffffffffffffffffffffffffff1673ffffffffffffffffffffffffffffffffffffffff1614610f9057600080fd5b610fa3610f9c82610d09565b3383611a4c565b50565b6002828160048281548110610fbe57610fbd6125ca565b5b906000526020600020906003020160020160009054906101000a900463ffffffff1663ffffffff161015611027576040517f08c379a000000000000000000000000000000000000000000000000000000000815260040161101e90612848565b60405180910390fd5b836005600082815260200190815260200160002060009054906101000a900473ffffffffffffffffffffffffffffffffffffffff1673ffffffffffffffffffffffffffffffffffffffff163373ffffffffffffffffffffffffffffffffffffffff16146110c9576040517f08c379a00000000000000000000000000000000000000000000000000000000081526004016110c09061253e565b60405180910390fd5b83600486815481106110de576110dd6125ca565b5b906000526020600020906003020160000190816110fb9190612b38565b505050505050565b61110b611696565b8060088190555050565b6000600660003373ffffffffffffffffffffffffffffffffffffffff1673ffffffffffffffffffffffffffffffffffffffff16815260200190815260200160002054905090565b6000826005600082815260200190815260200160002060009054906101000a900473ffffffffffffffffffffffffffffffffffffffff1673ffffffffffffffffffffffffffffffffffffffff163373ffffffffffffffffffffffffffffffffffffffff1614611200576040517f08c379a00000000000000000000000000000000000000000000000000000000081526004016111f79061253e565b60405180910390fd5b600060048581548110611216576112156125ca565b5b9060005260206000209060030201905060006004858154811061123c5761123b6125ca565b5b9060005260206000209060030201905060006112586064611c34565b9050600a54811161137e5782600201600881819054906101000a900461ffff168092919061128590612c0a565b91906101000a81548161ffff021916908361ffff1602179055505082600201600081819054906101000a900463ffffffff16809291906112c490612628565b91906101000a81548163ffffffff021916908363ffffffff1602179055505081600201600a81819054906101000a900461ffff168092919061130590612c0a565b91906101000a81548161ffff021916908361ffff1602179055505061132983611cd5565b15611373576113728783600101546040518060400160405280600681526020017f7a6f6d6269650000000000000000000000000000000000000000000000000000815250611492565b5b869450505050611408565b82600201600a81819054906101000a900461ffff16809291906113a090612c0a565b91906101000a81548161ffff021916908361ffff1602179055505081600201600881819054906101000a900461ffff16809291906113dd90612c0a565b91906101000a81548161ffff021916908361ffff1602179055505061140183611d40565b8594505050505b5092915050565b611417611696565b600073ffffffffffffffffffffffffffffffffffffffff168173ffffffffffffffffffffffffffffffffffffffff1603611486576040517f08c379a000000000000000000000000000000000000000000000000000000000815260040161147d90612ca6565b60405180910390fd5b61148f81611714565b50565b826005600082815260200190815260200160002060009054906101000a900473ffffffffffffffffffffffffffffffffffffffff1673ffffffffffffffffffffffffffffffffffffffff163373ffffffffffffffffffffffffffffffffffffffff1614611534576040517f08c379a000000000000000000000000000000000000000000000000000000000815260040161152b9061253e565b60405180910390fd5b60006004858154811061154a576115496125ca565b5b9060005260206000209060030201905061156381611cd5565b6115a2576040517f08c379a000000000000000000000000000000000000000000000000000000000815260040161159990612d12565b60405180910390fd5b600254846115b09190612d61565b9350600060028583600101546115c69190612654565b6115d09190612d92565b90507f8d53323b21b9f304546f6d3e61cde865451064d614aa4912f395b755a9d8cad9846040516020016116049190612dff565b604051602081830303815290604052805190602001200361164657606360648261162e9190612d61565b826116399190612e16565b6116439190612654565b90505b6116856040518060400160405280600681526020017f4e6f4e616d6500000000000000000000000000000000000000000000000000008152508261181d565b61168e82611d40565b505050505050565b61169e611d73565b73ffffffffffffffffffffffffffffffffffffffff166116bc610e4a565b73ffffffffffffffffffffffffffffffffffffffff1614611712576040517f08c379a000000000000000000000000000000000000000000000000000000000815260040161170990612e96565b60405180910390fd5b565b60008060009054906101000a900473ffffffffffffffffffffffffffffffffffffffff169050816000806101000a81548173ffffffffffffffffffffffffffffffffffffffff021916908373ffffffffffffffffffffffffffffffffffffffff1602179055508173ffffffffffffffffffffffffffffffffffffffff168173ffffffffffffffffffffffffffffffffffffffff167f8be0079c531659141344cd1fd0a4f28419497f9722a3daafe3b4186f6b6457e060405160405180910390a35050565b600080826040516020016117ec9190612dff565b6040516020818303038152906040528051906020012060001c9050600254816118159190612d61565b915050919050565b60046040518060c00160405280848152602001838152602001600163ffffffff168152602001600354426118519190612654565b63ffffffff168152602001600061ffff168152602001600061ffff16815250908060018154018082558091505060019003906000526020600020906003020160009091909190915060008201518160000190816118ae9190612b38565b506020820151816001015560408201518160020160006101000a81548163ffffffff021916908363ffffffff16021790555060608201518160020160046101000a81548163ffffffff021916908363ffffffff16021790555060808201518160020160086101000a81548161ffff021916908361ffff16021790555060a082015181600201600a6101000a81548161ffff021916908361ffff1602179055505050600060016004805490506119639190612e16565b9050336005600083815260200190815260200160002060006101000a81548173ffffffffffffffffffffffffffffffffffffffff021916908373ffffffffffffffffffffffffffffffffffffffff160217905550600660003373ffffffffffffffffffffffffffffffffffffffff1673ffffffffffffffffffffffffffffffffffffffff1681526020019081526020016000206000815480929190611a079061278e565b91905055507fe0bc367d57f255810f77a25ec7e4866c6dba3cd7b652945977390c9803f53139818484604051611a3f93929190612eb6565b60405180910390a1505050565b611a9f6001600660008573ffffffffffffffffffffffffffffffffffffffff1673ffffffffffffffffffffffffffffffffffffffff16815260200190815260200160002054611d7b90919063ffffffff16565b600660008473ffffffffffffffffffffffffffffffffffffffff1673ffffffffffffffffffffffffffffffffffffffff16815260200190815260200160002081905550611b356001600660008673ffffffffffffffffffffffffffffffffffffffff1673ffffffffffffffffffffffffffffffffffffffff16815260200190815260200160002054611d9190919063ffffffff16565b600660008573ffffffffffffffffffffffffffffffffffffffff1673ffffffffffffffffffffffffffffffffffffffff16815260200190815260200160002081905550816005600083815260200190815260200160002060006101000a81548173ffffffffffffffffffffffffffffffffffffffff021916908373ffffffffffffffffffffffffffffffffffffffff1602179055508173ffffffffffffffffffffffffffffffffffffffff168373ffffffffffffffffffffffffffffffffffffffff167fddf252ad1be2c89b69c2b068fc378daa952ba7f163c4a11628f55a4df523b3ef83604051611c27919061202c565b60405180910390a3505050565b600060096000815480929190611c499061278e565b91905055506000824233600954604051602001611c6893929190612ef4565b6040516020818303038152906040528051906020012060001c611c8b9190612d61565b9050611ccc6040518060400160405280601c81526020017f5b4c4f475d20637265617465642072616e646f6d206e756d6265723a0000000081525082611da7565b80915050919050565b600080428360020160049054906101000a900463ffffffff1663ffffffff1611159050611d376040518060400160405280601781526020017f5b4c4f475d20697320726561647920746f20666565643f00000000000000000081525082611e43565b80915050919050565b60035442611d4e9190612654565b8160020160046101000a81548163ffffffff021916908363ffffffff16021790555050565b600033905090565b60008183611d899190612654565b905092915050565b60008183611d9f9190612e16565b905092915050565b611e3f8282604051602401611dbd929190612f31565b6040516020818303038152906040527fb60e72cc000000000000000000000000000000000000000000000000000000007bffffffffffffffffffffffffffffffffffffffffffffffffffffffff19166020820180517bffffffffffffffffffffffffffffffffffffffffffffffffffffffff8381831617835250505050611edf565b5050565b611edb8282604051602401611e59929190612f7c565b6040516020818303038152906040527fc3b55635000000000000000000000000000000000000000000000000000000007bffffffffffffffffffffffffffffffffffffffffffffffffffffffff19166020820180517bffffffffffffffffffffffffffffffffffffffffffffffffffffffff8381831617835250505050611edf565b5050565b60008151905060006a636f6e736f6c652e6c6f679050602083016000808483855afa5050505050565b6000604051905090565b600080fd5b600080fd5b600073ffffffffffffffffffffffffffffffffffffffff82169050919050565b6000611f4782611f1c565b9050919050565b611f5781611f3c565b8114611f6257600080fd5b50565b600081359050611f7481611f4e565b92915050565b6000819050919050565b611f8d81611f7a565b8114611f9857600080fd5b50565b600081359050611faa81611f84565b92915050565b60008060408385031215611fc757611fc6611f12565b5b6000611fd585828601611f65565b9250506020611fe685828601611f9b565b9150509250929050565b60006020828403121561200657612005611f12565b5b600061201484828501611f9b565b91505092915050565b61202681611f7a565b82525050565b6000602082019050612041600083018461201d565b92915050565b6000806040838503121561205e5761205d611f12565b5b600061206c85828601611f9b565b925050602061207d85828601611f9b565b9150509250929050565b600081519050919050565b600082825260208201905092915050565b60005b838110156120c15780820151818401526020810190506120a6565b60008484015250505050565b6000601f19601f8301169050919050565b60006120e982612087565b6120f38185612092565b93506121038185602086016120a3565b61210c816120cd565b840191505092915050565b600063ffffffff82169050919050565b61213081612117565b82525050565b600061ffff82169050919050565b61214d81612136565b82525050565b600060c082019050818103600083015261216d81896120de565b905061217c602083018861201d565b6121896040830187612127565b6121966060830186612127565b6121a36080830185612144565b6121b060a0830184612144565b979650505050505050565b6000602082840312156121d1576121d0611f12565b5b60006121df84828501611f65565b91505092915050565b600081519050919050565b600082825260208201905092915050565b6000819050602082019050919050565b61221d81611f7a565b82525050565b600061222f8383612214565b60208301905092915050565b6000602082019050919050565b6000612253826121e8565b61225d81856121f3565b935061226883612204565b8060005b838110156122995781516122808882612223565b975061228b8361223b565b92505060018101905061226c565b5085935050505092915050565b600060208201905081810360008301526122c08184612248565b905092915050565b6122d181611f3c565b82525050565b60006020820190506122ec60008301846122c8565b92915050565b600080fd5b600080fd5b7f4e487b7100000000000000000000000000000000000000000000000000000000600052604160045260246000fd5b612334826120cd565b810181811067ffffffffffffffff82111715612353576123526122fc565b5b80604052505050565b6000612366611f08565b9050612372828261232b565b919050565b600067ffffffffffffffff821115612392576123916122fc565b5b61239b826120cd565b9050602081019050919050565b82818337600083830152505050565b60006123ca6123c584612377565b61235c565b9050828152602081018484840111156123e6576123e56122f7565b5b6123f18482856123a8565b509392505050565b600082601f83011261240e5761240d6122f2565b5b813561241e8482602086016123b7565b91505092915050565b60006020828403121561243d5761243c611f12565b5b600082013567ffffffffffffffff81111561245b5761245a611f17565b5b612467848285016123f9565b91505092915050565b6000806040838503121561248757612486611f12565b5b600061249585828601611f9b565b925050602083013567ffffffffffffffff8111156124b6576124b5611f17565b5b6124c2858286016123f9565b9150509250929050565b7f6d6573736167652e73656e6465722073686f756c64206f776e20746865207a6f60008201527f6d62696500000000000000000000000000000000000000000000000000000000602082015250565b6000612528602483612092565b9150612533826124cc565b604082019050919050565b600060208201905081810360008301526125578161251b565b9050919050565b7f736f6d6520657468657273206e656564656420746f206c6576656c2075700000600082015250565b6000612594601e83612092565b915061259f8261255e565b602082019050919050565b600060208201905081810360008301526125c381612587565b9050919050565b7f4e487b7100000000000000000000000000000000000000000000000000000000600052603260045260246000fd5b7f4e487b7100000000000000000000000000000000000000000000000000000000600052601160045260246000fd5b600061263382612117565b915063ffffffff8203612649576126486125f9565b5b600182019050919050565b600061265f82611f7a565b915061266a83611f7a565b9250828201905080821115612682576126816125f9565b5b92915050565b6000819050919050565b6126a361269e82611f7a565b612688565b82525050565b60008160601b9050919050565b60006126c1826126a9565b9050919050565b60006126d3826126b6565b9050919050565b6126eb6126e682611f3c565b6126c8565b82525050565b60006126fd8286612692565b60208201915061270d8285612692565b60208201915061271d82846126da565b601482019150819050949350505050565b7f4e487b7100000000000000000000000000000000000000000000000000000000600052602260045260246000fd5b6000600282049050600182168061277557607f821691505b6020821081036127885761278761272e565b5b50919050565b600061279982611f7a565b91507fffffffffffffffffffffffffffffffffffffffffffffffffffffffffffffffff82036127cb576127ca6125f9565b5b600182019050919050565b7f7a6f6d626965206c6576656c20746f6f206c6f7720746f206368616e6765206e60008201527f616d650000000000000000000000000000000000000000000000000000000000602082015250565b6000612832602383612092565b915061283d826127d6565b604082019050919050565b6000602082019050818103600083015261286181612825565b9050919050565b7f796f7520617265206e6f7420746865206f776e6572206f662074686973207a6f60008201527f6d62696500000000000000000000000000000000000000000000000000000000602082015250565b60006128c4602483612092565b91506128cf82612868565b604082019050919050565b600060208201905081810360008301526128f3816128b7565b9050919050565b7f4f6e6c79206f6e65207a6f6d626965206f626a6563742063616e20626520637260008201527f656174656420666f72206f6e6520616464726573730000000000000000000000602082015250565b6000612956603583612092565b9150612961826128fa565b604082019050919050565b6000602082019050818103600083015261298581612949565b9050919050565b60008190508160005260206000209050919050565b60006020601f8301049050919050565b600082821b905092915050565b6000600883026129ee7fffffffffffffffffffffffffffffffffffffffffffffffffffffffffffffffff826129b1565b6129f886836129b1565b95508019841693508086168417925050509392505050565b6000819050919050565b6000612a35612a30612a2b84611f7a565b612a10565b611f7a565b9050919050565b6000819050919050565b612a4f83612a1a565b612a63612a5b82612a3c565b8484546129be565b825550505050565b600090565b612a78612a6b565b612a83818484612a46565b505050565b5b81811015612aa757612a9c600082612a70565b600181019050612a89565b5050565b601f821115612aec57612abd8161298c565b612ac6846129a1565b81016020851015612ad5578190505b612ae9612ae1856129a1565b830182612a88565b50505b505050565b600082821c905092915050565b6000612b0f60001984600802612af1565b1980831691505092915050565b6000612b288383612afe565b9150826002028217905092915050565b612b4182612087565b67ffffffffffffffff811115612b5a57612b596122fc565b5b612b64825461275d565b612b6f828285612aab565b600060209050601f831160018114612ba25760008415612b90578287015190505b612b9a8582612b1c565b865550612c02565b601f198416612bb08661298c565b60005b82811015612bd857848901518255600182019150602085019450602081019050612bb3565b86831015612bf55784890151612bf1601f891682612afe565b8355505b6001600288020188555050505b505050505050565b6000612c1582612136565b915061ffff8203612c2957612c286125f9565b5b600182019050919050565b7f4f776e61626c653a206e6577206f776e657220697320746865207a65726f206160008201527f6464726573730000000000000000000000000000000000000000000000000000602082015250565b6000612c90602683612092565b9150612c9b82612c34565b604082019050919050565b60006020820190508181036000830152612cbf81612c83565b9050919050565b7f74686973207a6f6d626965206973206e6f7420726561647920746f2066656564600082015250565b6000612cfc602083612092565b9150612d0782612cc6565b602082019050919050565b60006020820190508181036000830152612d2b81612cef565b9050919050565b7f4e487b7100000000000000000000000000000000000000000000000000000000600052601260045260246000fd5b6000612d6c82611f7a565b9150612d7783611f7a565b925082612d8757612d86612d32565b5b828206905092915050565b6000612d9d82611f7a565b9150612da883611f7a565b925082612db857612db7612d32565b5b828204905092915050565b600081905092915050565b6000612dd982612087565b612de38185612dc3565b9350612df38185602086016120a3565b80840191505092915050565b6000612e0b8284612dce565b915081905092915050565b6000612e2182611f7a565b9150612e2c83611f7a565b9250828203905081811115612e4457612e436125f9565b5b92915050565b7f4f776e61626c653a2063616c6c6572206973206e6f7420746865206f776e6572600082015250565b6000612e80602083612092565b9150612e8b82612e4a565b602082019050919050565b60006020820190508181036000830152612eaf81612e73565b9050919050565b6000606082019050612ecb600083018661201d565b8181036020830152612edd81856120de565b9050612eec604083018461201d565b949350505050565b6000612f008286612692565b602082019150612f1082856126da565b601482019150612f208284612692565b602082019150819050949350505050565b60006040820190508181036000830152612f4b81856120de565b9050612f5a602083018461201d565b9392505050565b60008115159050919050565b612f7681612f61565b82525050565b60006040820190508181036000830152612f9681856120de565b9050612fa56020830184612f6d565b939250505056fea26469706673582212206459ea6736e24c4e0d55ce95742157d9dd1684da305d3da907c67a31a782fbc464736f6c63430008110033",
  "linkReferences": {},
  "deployedLinkReferences": {}
}