{
  "_format": "hh-sol-artifact-1",
  "contractName": "ZombieFactory",
  "sourceName": "contracts/ZombieFactory.sol",
  "abi": [
    {
      "anonymous": false,
      "inputs": [
        {
          "indexed": false,
          "internalType": "uint256",
          "name": "zombieId",
          "type": "uint256"
        },
        {
          "indexed": false,
          "internalType": "string",
          "name": "name",
          "type": "string"
        },
        {
          "indexed": false,
          "internalType": "uint256",
          "name": "dna",
          "type": "uint256"
        }
      ],
      "name": "EventNewZombie",
      "type": "event"
    },
    {
      "anonymous": false,
      "inputs": [
        {
          "indexed": true,
          "internalType": "address",
          "name": "previousOwner",
          "type": "address"
        },
        {
          "indexed": true,
          "internalType": "address",
          "name": "newOwner",
          "type": "address"
        }
      ],
      "name": "OwnershipTransferred",
      "type": "event"
    },
    {
      "inputs": [
        {
          "internalType": "string",
          "name": "_name",
          "type": "string"
        }
      ],
      "name": "createRandomZombie",
      "outputs": [],
      "stateMutability": "nonpayable",
      "type": "function"
    },
    {
      "inputs": [],
      "name": "getBalance",
      "outputs": [
        {
          "internalType": "uint256",
          "name": "",
          "type": "uint256"
        }
      ],
      "stateMutability": "view",
      "type": "function"
    },
    {
      "inputs": [],
      "name": "getOwnedZombiesCount",
      "outputs": [
        {
          "internalType": "uint256",
          "name": "",
          "type": "uint256"
        }
      ],
      "stateMutability": "view",
      "type": "function"
    },
    {
      "inputs": [],
      "name": "owner",
      "outputs": [
        {
          "internalType": "address",
          "name": "",
          "type": "address"
        }
      ],
      "stateMutability": "view",
      "type": "function"
    },
    {
      "inputs": [],
      "name": "renounceOwnership",
      "outputs": [],
      "stateMutability": "nonpayable",
      "type": "function"
    },
    {
      "inputs": [
        {
          "internalType": "address",
          "name": "newOwner",
          "type": "address"
        }
      ],
      "name": "transferOwnership",
      "outputs": [],
      "stateMutability": "nonpayable",
      "type": "function"
    },
    {
      "inputs": [],
      "name": "withdraw",
      "outputs": [],
      "stateMutability": "nonpayable",
      "type": "function"
    },
    {
      "inputs": [
        {
          "internalType": "uint256",
          "name": "",
          "type": "uint256"
        }
      ],
      "name": "zombieToOwner",
      "outputs": [
        {
          "internalType": "address",
          "name": "",
          "type": "address"
        }
      ],
      "stateMutability": "view",
      "type": "function"
    },
    {
      "inputs": [
        {
          "internalType": "uint256",
          "name": "",
          "type": "uint256"
        }
      ],
      "name": "zombies",
      "outputs": [
        {
          "internalType": "string",
          "name": "name",
          "type": "string"
        },
        {
          "internalType": "uint256",
          "name": "dna",
          "type": "uint256"
        },
        {
          "internalType": "uint32",
          "name": "level",
          "type": "uint32"
        },
        {
          "internalType": "uint32",
          "name": "readyTime",
          "type": "uint32"
        },
        {
          "internalType": "uint16",
          "name": "winCount",
          "type": "uint16"
        },
        {
          "internalType": "uint16",
          "name": "lossCount",
          "type": "uint16"
        }
      ],
      "stateMutability": "view",
      "type": "function"
    }
  ],
  "bytecode": "0x60806040526010600155600154600a6200001a9190620002b1565b600255620151806003553480156200003157600080fd5b5062000052620000466200005860201b60201c565b6200006060201b60201c565b62000302565b600033905090565b60008060009054906101000a900473ffffffffffffffffffffffffffffffffffffffff169050816000806101000a81548173ffffffffffffffffffffffffffffffffffffffff021916908373ffffffffffffffffffffffffffffffffffffffff1602179055508173ffffffffffffffffffffffffffffffffffffffff168173ffffffffffffffffffffffffffffffffffffffff167f8be0079c531659141344cd1fd0a4f28419497f9722a3daafe3b4186f6b6457e060405160405180910390a35050565b7f4e487b7100000000000000000000000000000000000000000000000000000000600052601160045260246000fd5b60008160011c9050919050565b6000808291508390505b6001851115620001b2578086048111156200018a576200018962000124565b5b60018516156200019a5780820291505b8081029050620001aa8562000153565b94506200016a565b94509492505050565b600082620001cd5760019050620002a0565b81620001dd5760009050620002a0565b8160018114620001f65760028114620002015762000237565b6001915050620002a0565b60ff84111562000216576200021562000124565b5b8360020a91508482111562000230576200022f62000124565b5b50620002a0565b5060208310610133831016604e8410600b8410161715620002715782820a9050838111156200026b576200026a62000124565b5b620002a0565b62000280848484600162000160565b925090508184048111156200029a576200029962000124565b5b81810290505b9392505050565b6000819050919050565b6000620002be82620002a7565b9150620002cb83620002a7565b9250620002fa7fffffffffffffffffffffffffffffffffffffffffffffffffffffffffffffffff8484620001bb565b905092915050565b61132480620003126000396000f3fe608060405234801561001057600080fd5b50600436106100935760003560e01c8063715018a611610066578063715018a6146101255780637bff0a011461012f5780638da5cb5b1461014b578063d6cc352614610169578063f2fde38b1461018757610093565b806312065fe0146100985780632052465e146100b65780633ccfd60b146100eb578063528b7b8f146100f5575b600080fd5b6100a06101a3565b6040516100ad91906108c1565b60405180910390f35b6100d060048036038101906100cb919061091c565b6101ab565b6040516100e296959493929190610a15565b60405180910390f35b6100f36102bb565b005b61010f600480360381019061010a919061091c565b610313565b60405161011c9190610abe565b60405180910390f35b61012d610346565b005b61014960048036038101906101449190610c0e565b61035a565b005b6101536103f7565b6040516101609190610abe565b60405180910390f35b610171610420565b60405161017e91906108c1565b60405180910390f35b6101a1600480360381019061019c9190610c83565b610467565b005b600047905090565b600481815481106101bb57600080fd5b90600052602060002090600302016000915090508060000180546101de90610cdf565b80601f016020809104026020016040519081016040528092919081815260200182805461020a90610cdf565b80156102575780601f1061022c57610100808354040283529160200191610257565b820191906000526020600020905b81548152906001019060200180831161023a57829003601f168201915b5050505050908060010154908060020160009054906101000a900463ffffffff16908060020160049054906101000a900463ffffffff16908060020160089054906101000a900461ffff169080600201600a9054906101000a900461ffff16905086565b6102c36104ea565b6102cb6103f7565b73ffffffffffffffffffffffffffffffffffffffff166108fc479081150290604051600060405180830381858888f19350505050158015610310573d6000803e3d6000fd5b50565b60056020528060005260406000206000915054906101000a900473ffffffffffffffffffffffffffffffffffffffff1681565b61034e6104ea565b6103586000610568565b565b600660003373ffffffffffffffffffffffffffffffffffffffff1673ffffffffffffffffffffffffffffffffffffffff168152602001908152602001600020546000146103dc576040517f08c379a00000000000000000000000000000000000000000000000000000000081526004016103d390610d82565b60405180910390fd5b60006103e78261062c565b90506103f38282610671565b5050565b60008060009054906101000a900473ffffffffffffffffffffffffffffffffffffffff16905090565b6000600660003373ffffffffffffffffffffffffffffffffffffffff1673ffffffffffffffffffffffffffffffffffffffff16815260200190815260200160002054905090565b61046f6104ea565b600073ffffffffffffffffffffffffffffffffffffffff168173ffffffffffffffffffffffffffffffffffffffff16036104de576040517f08c379a00000000000000000000000000000000000000000000000000000000081526004016104d590610e14565b60405180910390fd5b6104e781610568565b50565b6104f26108a0565b73ffffffffffffffffffffffffffffffffffffffff166105106103f7565b73ffffffffffffffffffffffffffffffffffffffff1614610566576040517f08c379a000000000000000000000000000000000000000000000000000000000815260040161055d90610e80565b60405180910390fd5b565b60008060009054906101000a900473ffffffffffffffffffffffffffffffffffffffff169050816000806101000a81548173ffffffffffffffffffffffffffffffffffffffff021916908373ffffffffffffffffffffffffffffffffffffffff1602179055508173ffffffffffffffffffffffffffffffffffffffff168173ffffffffffffffffffffffffffffffffffffffff167f8be0079c531659141344cd1fd0a4f28419497f9722a3daafe3b4186f6b6457e060405160405180910390a35050565b600080826040516020016106409190610edc565b6040516020818303038152906040528051906020012060001c9050600254816106699190610f22565b915050919050565b60046040518060c00160405280848152602001838152602001600163ffffffff168152602001600354426106a59190610f82565b63ffffffff168152602001600061ffff168152602001600061ffff16815250908060018154018082558091505060019003906000526020600020906003020160009091909190915060008201518160000190816107029190611162565b506020820151816001015560408201518160020160006101000a81548163ffffffff021916908363ffffffff16021790555060608201518160020160046101000a81548163ffffffff021916908363ffffffff16021790555060808201518160020160086101000a81548161ffff021916908361ffff16021790555060a082015181600201600a6101000a81548161ffff021916908361ffff1602179055505050600060016004805490506107b79190611234565b9050336005600083815260200190815260200160002060006101000a81548173ffffffffffffffffffffffffffffffffffffffff021916908373ffffffffffffffffffffffffffffffffffffffff160217905550600660003373ffffffffffffffffffffffffffffffffffffffff1673ffffffffffffffffffffffffffffffffffffffff168152602001908152602001600020600081548092919061085b90611268565b91905055507fe0bc367d57f255810f77a25ec7e4866c6dba3cd7b652945977390c9803f53139818484604051610893939291906112b0565b60405180910390a1505050565b600033905090565b6000819050919050565b6108bb816108a8565b82525050565b60006020820190506108d660008301846108b2565b92915050565b6000604051905090565b600080fd5b600080fd5b6108f9816108a8565b811461090457600080fd5b50565b600081359050610916816108f0565b92915050565b600060208284031215610932576109316108e6565b5b600061094084828501610907565b91505092915050565b600081519050919050565b600082825260208201905092915050565b60005b83811015610983578082015181840152602081019050610968565b60008484015250505050565b6000601f19601f8301169050919050565b60006109ab82610949565b6109b58185610954565b93506109c5818560208601610965565b6109ce8161098f565b840191505092915050565b600063ffffffff82169050919050565b6109f2816109d9565b82525050565b600061ffff82169050919050565b610a0f816109f8565b82525050565b600060c0820190508181036000830152610a2f81896109a0565b9050610a3e60208301886108b2565b610a4b60408301876109e9565b610a5860608301866109e9565b610a656080830185610a06565b610a7260a0830184610a06565b979650505050505050565b600073ffffffffffffffffffffffffffffffffffffffff82169050919050565b6000610aa882610a7d565b9050919050565b610ab881610a9d565b82525050565b6000602082019050610ad36000830184610aaf565b92915050565b600080fd5b600080fd5b7f4e487b7100000000000000000000000000000000000000000000000000000000600052604160045260246000fd5b610b1b8261098f565b810181811067ffffffffffffffff82111715610b3a57610b39610ae3565b5b80604052505050565b6000610b4d6108dc565b9050610b598282610b12565b919050565b600067ffffffffffffffff821115610b7957610b78610ae3565b5b610b828261098f565b9050602081019050919050565b82818337600083830152505050565b6000610bb1610bac84610b5e565b610b43565b905082815260208101848484011115610bcd57610bcc610ade565b5b610bd8848285610b8f565b509392505050565b600082601f830112610bf557610bf4610ad9565b5b8135610c05848260208601610b9e565b91505092915050565b600060208284031215610c2457610c236108e6565b5b600082013567ffffffffffffffff811115610c4257610c416108eb565b5b610c4e84828501610be0565b91505092915050565b610c6081610a9d565b8114610c6b57600080fd5b50565b600081359050610c7d81610c57565b92915050565b600060208284031215610c9957610c986108e6565b5b6000610ca784828501610c6e565b91505092915050565b7f4e487b7100000000000000000000000000000000000000000000000000000000600052602260045260246000fd5b60006002820490506001821680610cf757607f821691505b602082108103610d0a57610d09610cb0565b5b50919050565b7f4f6e6c79206f6e65207a6f6d626965206f626a6563742063616e20626520637260008201527f656174656420666f72206f6e6520616464726573730000000000000000000000602082015250565b6000610d6c603583610954565b9150610d7782610d10565b604082019050919050565b60006020820190508181036000830152610d9b81610d5f565b9050919050565b7f4f776e61626c653a206e6577206f776e657220697320746865207a65726f206160008201527f6464726573730000000000000000000000000000000000000000000000000000602082015250565b6000610dfe602683610954565b9150610e0982610da2565b604082019050919050565b60006020820190508181036000830152610e2d81610df1565b9050919050565b7f4f776e61626c653a2063616c6c6572206973206e6f7420746865206f776e6572600082015250565b6000610e6a602083610954565b9150610e7582610e34565b602082019050919050565b60006020820190508181036000830152610e9981610e5d565b9050919050565b600081905092915050565b6000610eb682610949565b610ec08185610ea0565b9350610ed0818560208601610965565b80840191505092915050565b6000610ee88284610eab565b915081905092915050565b7f4e487b7100000000000000000000000000000000000000000000000000000000600052601260045260246000fd5b6000610f2d826108a8565b9150610f38836108a8565b925082610f4857610f47610ef3565b5b828206905092915050565b7f4e487b7100000000000000000000000000000000000000000000000000000000600052601160045260246000fd5b6000610f8d826108a8565b9150610f98836108a8565b9250828201905080821115610fb057610faf610f53565b5b92915050565b60008190508160005260206000209050919050565b60006020601f8301049050919050565b600082821b905092915050565b6000600883026110187fffffffffffffffffffffffffffffffffffffffffffffffffffffffffffffffff82610fdb565b6110228683610fdb565b95508019841693508086168417925050509392505050565b6000819050919050565b600061105f61105a611055846108a8565b61103a565b6108a8565b9050919050565b6000819050919050565b61107983611044565b61108d61108582611066565b848454610fe8565b825550505050565b600090565b6110a2611095565b6110ad818484611070565b505050565b5b818110156110d1576110c660008261109a565b6001810190506110b3565b5050565b601f821115611116576110e781610fb6565b6110f084610fcb565b810160208510156110ff578190505b61111361110b85610fcb565b8301826110b2565b50505b505050565b600082821c905092915050565b60006111396000198460080261111b565b1980831691505092915050565b60006111528383611128565b9150826002028217905092915050565b61116b82610949565b67ffffffffffffffff81111561118457611183610ae3565b5b61118e8254610cdf565b6111998282856110d5565b600060209050601f8311600181146111cc57600084156111ba578287015190505b6111c48582611146565b86555061122c565b601f1984166111da86610fb6565b60005b82811015611202578489015182556001820191506020850194506020810190506111dd565b8683101561121f578489015161121b601f891682611128565b8355505b6001600288020188555050505b505050505050565b600061123f826108a8565b915061124a836108a8565b925082820390508181111561126257611261610f53565b5b92915050565b6000611273826108a8565b91507fffffffffffffffffffffffffffffffffffffffffffffffffffffffffffffffff82036112a5576112a4610f53565b5b600182019050919050565b60006060820190506112c560008301866108b2565b81810360208301526112d781856109a0565b90506112e660408301846108b2565b94935050505056fea2646970667358221220dcb682d31d48acc170bb3af94303c490d9b5aafb852bb456544ade8c60f5906c64736f6c63430008110033",
  "linkReferences": {},
  "deployedLinkReferences": {}
}